{
  "address": "0xCD97F0593f77F109CA3Cd178bA9940A827858eA7",
  "abi": [
    {
      "anonymous": false,
      "inputs": [
        {
          "indexed": true,
          "internalType": "uint256",
          "name": "escrowId",
          "type": "uint256"
        }
      ],
      "name": "EscrowClosed",
      "type": "event"
    },
    {
      "anonymous": false,
      "inputs": [
        {
          "indexed": true,
          "internalType": "uint256",
          "name": "escrowId",
          "type": "uint256"
        },
        {
          "indexed": false,
          "internalType": "address",
          "name": "creator",
          "type": "address"
        }
      ],
      "name": "EscrowCreated",
      "type": "event"
    },
    {
      "anonymous": false,
      "inputs": [
        {
          "indexed": true,
          "internalType": "uint256",
          "name": "escrowId",
          "type": "uint256"
        }
      ],
      "name": "EscrowLocked",
      "type": "event"
    },
    {
      "anonymous": false,
      "inputs": [
        {
          "indexed": true,
          "internalType": "uint256",
          "name": "escrowId",
          "type": "uint256"
        },
        {
          "indexed": false,
          "internalType": "string",
          "name": "newMetadata",
          "type": "string"
        }
      ],
      "name": "EscrowModified",
      "type": "event"
    },
    {
      "anonymous": false,
      "inputs": [
        {
          "indexed": true,
          "internalType": "address",
          "name": "previousOwner",
          "type": "address"
        },
        {
          "indexed": true,
          "internalType": "address",
          "name": "newOwner",
          "type": "address"
        }
      ],
      "name": "OwnershipTransferred",
      "type": "event"
    },
    {
      "anonymous": false,
      "inputs": [
        {
          "indexed": true,
          "internalType": "uint256",
          "name": "escrowId",
          "type": "uint256"
        },
        {
          "indexed": false,
          "internalType": "address",
          "name": "depositor",
          "type": "address"
        },
        {
          "indexed": false,
          "internalType": "address",
          "name": "tokenAddress",
          "type": "address"
        },
        {
          "indexed": false,
          "internalType": "uint256",
          "name": "amount",
          "type": "uint256"
        }
      ],
      "name": "TokensDeposited",
      "type": "event"
    },
    {
      "anonymous": false,
      "inputs": [
        {
          "indexed": true,
          "internalType": "uint256",
          "name": "escrowId",
          "type": "uint256"
        },
        {
          "indexed": false,
          "internalType": "string",
          "name": "releaseId",
          "type": "string"
        },
        {
          "indexed": false,
          "internalType": "address[]",
          "name": "recipients",
          "type": "address[]"
        },
        {
          "indexed": false,
          "internalType": "uint256[]",
          "name": "amounts",
          "type": "uint256[]"
        }
      ],
      "name": "TokensReleased",
      "type": "event"
    },
    {
      "inputs": [
        {
          "internalType": "uint256",
          "name": "escrowId",
          "type": "uint256"
        },
        {
          "internalType": "address",
          "name": "tokenAddress",
          "type": "address"
        },
        {
          "internalType": "uint256",
          "name": "amount",
          "type": "uint256"
        },
        {
          "internalType": "string",
          "name": "jsonData",
          "type": "string"
        }
      ],
      "name": "depositTokens",
      "outputs": [],
      "stateMutability": "nonpayable",
      "type": "function"
    },
    {
      "inputs": [
        {
          "internalType": "uint256",
          "name": "escrowId",
          "type": "uint256"
        }
      ],
      "name": "getEscrow",
      "outputs": [
        {
          "components": [
            {
              "internalType": "uint256",
              "name": "escrowId",
              "type": "uint256"
            },
            {
              "internalType": "address",
              "name": "creator",
              "type": "address"
            },
            {
              "internalType": "bool",
              "name": "isClosed",
              "type": "bool"
            },
            {
              "internalType": "bool",
              "name": "isLocked",
              "type": "bool"
            },
            {
              "internalType": "string",
              "name": "dataJson",
              "type": "string"
            },
            {
              "components": [
                {
                  "internalType": "address",
                  "name": "depositor",
                  "type": "address"
                },
                {
                  "internalType": "address",
                  "name": "tokenAddress",
                  "type": "address"
                },
                {
                  "internalType": "uint256",
                  "name": "amount",
                  "type": "uint256"
                },
                {
                  "internalType": "uint256",
                  "name": "timestamp",
                  "type": "uint256"
                },
                {
                  "internalType": "string",
                  "name": "jsonData",
                  "type": "string"
                }
              ],
              "internalType": "struct Escrow.TokenDeposit[]",
              "name": "deposits",
              "type": "tuple[]"
            },
            {
              "components": [
                {
                  "internalType": "string",
                  "name": "releaseId",
                  "type": "string"
                },
                {
                  "internalType": "address[]",
                  "name": "recipients",
                  "type": "address[]"
                },
                {
                  "internalType": "uint256[]",
                  "name": "amounts",
                  "type": "uint256[]"
                },
                {
                  "internalType": "bool",
                  "name": "isFullRelease",
                  "type": "bool"
                },
                {
                  "internalType": "string",
                  "name": "dataJson",
                  "type": "string"
                },
                {
                  "internalType": "uint256",
                  "name": "timestamp",
                  "type": "uint256"
                }
              ],
              "internalType": "struct Escrow.ReleaseRecord[]",
              "name": "releases",
              "type": "tuple[]"
            },
            {
              "internalType": "uint256",
              "name": "totalTokensDeposited",
              "type": "uint256"
            },
            {
              "internalType": "uint256",
              "name": "totalTokensReleased",
              "type": "uint256"
            },
            {
              "internalType": "uint256",
              "name": "releaseCount",
              "type": "uint256"
            }
          ],
          "internalType": "struct Escrow.EscrowDetails",
          "name": "",
          "type": "tuple"
        }
      ],
      "stateMutability": "view",
      "type": "function"
    },
    {
      "inputs": [
        {
          "internalType": "uint256",
          "name": "escrowId",
          "type": "uint256"
        }
      ],
      "name": "lockEscrow",
      "outputs": [],
      "stateMutability": "nonpayable",
      "type": "function"
    },
    {
      "inputs": [
        {
          "internalType": "uint256",
          "name": "escrowId",
          "type": "uint256"
        },
        {
          "internalType": "string",
          "name": "metadataJson",
          "type": "string"
        }
      ],
      "name": "manageEscrow",
      "outputs": [
        {
          "internalType": "uint256",
          "name": "",
          "type": "uint256"
        }
      ],
      "stateMutability": "nonpayable",
      "type": "function"
    },
    {
      "inputs": [],
      "name": "owner",
      "outputs": [
        {
          "internalType": "address",
          "name": "",
          "type": "address"
        }
      ],
      "stateMutability": "view",
      "type": "function"
    },
    {
      "inputs": [
        {
          "internalType": "uint256",
          "name": "escrowId",
          "type": "uint256"
        }
      ],
      "name": "refund",
      "outputs": [],
      "stateMutability": "nonpayable",
      "type": "function"
    },
    {
      "inputs": [
        {
          "internalType": "uint256",
          "name": "escrowId",
          "type": "uint256"
        },
        {
          "internalType": "address[]",
          "name": "recipients",
          "type": "address[]"
        },
        {
          "internalType": "uint256[]",
          "name": "amounts",
          "type": "uint256[]"
        },
        {
          "internalType": "bool",
          "name": "isFullRelease",
          "type": "bool"
        },
        {
          "internalType": "string",
          "name": "dataJson",
          "type": "string"
        }
      ],
      "name": "release",
      "outputs": [],
      "stateMutability": "nonpayable",
      "type": "function"
    },
    {
      "inputs": [],
      "name": "renounceOwnership",
      "outputs": [],
      "stateMutability": "nonpayable",
      "type": "function"
    },
    {
      "inputs": [
        {
          "internalType": "address",
          "name": "newOwner",
          "type": "address"
        }
      ],
      "name": "transferOwnership",
      "outputs": [],
      "stateMutability": "nonpayable",
      "type": "function"
    }
  ],
  "transactionHash": "0xd83ca497c518bfc59ae6b3260d4f2995887421580d16fa6fc079037e50edf33e",
  "args": [],
  "numDeployments": 2,
  "solcInputHash": "f0fcd0e5049df795e6bc771b0a9e4e22",
  "bytecode": "0x608060405234801561001057600080fd5b5061001a3361001f565b61006f565b600080546001600160a01b038381166001600160a01b0319831681178455604051919092169283917f8be0079c531659141344cd1fd0a4f28419497f9722a3daafe3b4186f6b6457e09190a35050565b6128628061007e6000396000f3fe608060405234801561001057600080fd5b50600436106100835760003560e01c806309111cf714610088578063278ecde1146100ae5780632b14b0e0146100c35780633a0f5734146100d6578063715018a6146100e95780637d19e596146100f15780638da5cb5b146101115780638e4928af14610126578063f2fde38b14610139575b600080fd5b61009b610096366004611f4b565b61014c565b6040519081526020015b60405180910390f35b6100c16100bc366004611f91565b610329565b005b6100c16100d1366004611fc6565b6105e6565b6100c16100e43660046120cd565b610831565b6100c161096b565b6101046100ff366004611f91565b61097f565b6040516100a591906123e2565b610119610eae565b6040516100a591906124ab565b6100c1610134366004611f91565b610ebd565b6100c16101473660046124bf565b610fc7565b60008260000361020057610164600280546001019055565b600254600081815260016020819052604090912082815590810180546001600160b01b0319163361ffff60a01b1916179055909350600281016101a78482612564565b5060006005820181905560068201819055600782015560405184907f10cef5ec72e57e7983d937eb064757a668131fb3c724a8a7b1ee3fbd334fa3d6906101ef9033906124ab565b60405180910390a283915050610323565b600083815260016020819052604090912001546001600160a01b0316331480610241575061022c610eae565b6001600160a01b0316336001600160a01b0316145b6102925760405162461bcd60e51b815260206004820152601f60248201527f4e6f7420617574686f72697a656420746f206d6f6469667920657363726f770060448201526064015b60405180910390fd5b60008381526001602081905260409091200154600160a81b900460ff16156102cc5760405162461bcd60e51b815260040161028990612623565b60008381526001602052604090206002016102e78382612564565b50827fd6af13caf372ab2063093a7c034c3db1f08a29a9202686d2b8f4599ee55112f883604051610318919061264d565b60405180910390a250815b92915050565b6000818152600160205260408120548291036103575760405162461bcd60e51b815260040161028990612660565b600082815260016020819052604090912090810154600160a01b900460ff16156103ce5760405162461bcd60e51b815260206004820152602260248201527f436c6f73656420657363726f77732063616e6e6f7420626520726566756e6465604482015261321760f11b6064820152608401610289565b60005b60038201548110156105e05760008260030182815481106103f4576103f461268f565b60009182526020918290206040805160a081018252600590930290910180546001600160a01b0390811684526001820154169383019390935260028301549082015260038201546060820152600482018054919291608084019190610458906124e1565b80601f0160208091040260200160405190810160405280929190818152602001828054610484906124e1565b80156104d15780601f106104a6576101008083540402835291602001916104d1565b820191906000526020600020905b8154815290600101906020018083116104b457829003601f168201915b505050505081525050905060008160400151905060006104f5858460000151611040565b9050600061050382846126bb565b905080156105c9576020840151845160405163a9059cbb60e01b81526001600160a01b0383169163a9059cbb9161053f919086906004016126ce565b6020604051808303816000875af115801561055e573d6000803e3d6000fd5b505050506040513d601f19601f8201168201806040525081019061058291906126e7565b6105c75760405162461bcd60e51b81526020600482015260166024820152751499599d5b99081d1c985b9cd9995c8819985a5b195960521b6044820152606401610289565b505b5050505080806105d890612704565b9150506103d1565b50505050565b6000848152600160205260408120548591036106145760405162461bcd60e51b815260040161028990612660565b600085815260016020819052604090912001548590600160a01b900460ff16156106505760405162461bcd60e51b81526004016102899061271d565b600084116106ae5760405162461bcd60e51b815260206004820152602560248201527f4465706f73697420616d6f756e74206d75737420626520677265617465722074604482015264068616e20360dc1b6064820152608401610289565b6040516323b872dd60e01b815285906001600160a01b038216906323b872dd906106e090339030908a90600401612747565b6020604051808303816000875af11580156106ff573d6000803e3d6000fd5b505050506040513d601f19601f8201168201806040525081019061072391906126e7565b61073f5760405162461bcd60e51b81526004016102899061276b565b6000878152600160208181526040808420815160a0810183523381526001600160a01b038c81168286019081529382018c81524260608401908152608084018d815260039586018054808b018255908b5297909920845160059098020180549784166001600160a01b031998891617815595519786018054989093169790961696909617905593516002830155915191810191909155915190919060048201906107e99082612564565b505050867f435495c77802cf4c1ed98c74a7ce8799db241d5473d9fd4963eb8b009d84745433888860405161082093929190612747565b60405180910390a250505050505050565b60008581526001602052604081205486910361085f5760405162461bcd60e51b815260040161028990612660565b600086815260016020819052604090912001548690600160a01b900460ff161561089b5760405162461bcd60e51b81526004016102899061271d565b6000878152600160208190526040909120908101546001600160a01b03163314806108de57506108c9610eae565b6001600160a01b0316336001600160a01b0316145b6109265760405162461bcd60e51b81526020600482015260196024820152784e6f7420617574686f72697a656420746f2072656c6561736560381b6044820152606401610289565b865160011480156109345750845b801561093f57508551155b156109545761094f81888661131f565b610961565b6109618188888888611802565b5050505050505050565b610973611b8e565b61097d6000611bed565b565b6109e26040518061014001604052806000815260200160006001600160a01b031681526020016000151581526020016000151581526020016060815260200160608152602001606081526020016000815260200160008152602001600081525090565b600082815260016020526040812054839103610a105760405162461bcd60e51b815260040161028990612660565b60008381526001602081815260409283902083516101408101855281548152928101546001600160a01b0381169284019290925260ff600160a01b83048116151594840194909452600160a81b90910490921615156060820152600282018054919291608084019190610a82906124e1565b80601f0160208091040260200160405190810160405280929190818152602001828054610aae906124e1565b8015610afb5780601f10610ad057610100808354040283529160200191610afb565b820191906000526020600020905b815481529060010190602001808311610ade57829003601f168201915b5050505050815260200160038201805480602002602001604051908101604052809291908181526020016000905b82821015610c255760008481526020908190206040805160a0810182526005860290920180546001600160a01b0390811684526001820154169383019390935260028301549082015260038201546060820152600482018054919291608084019190610b94906124e1565b80601f0160208091040260200160405190810160405280929190818152602001828054610bc0906124e1565b8015610c0d5780601f10610be257610100808354040283529160200191610c0d565b820191906000526020600020905b815481529060010190602001808311610bf057829003601f168201915b50505050508152505081526020019060010190610b29565b50505050815260200160048201805480602002602001604051908101604052809291908181526020016000905b82821015610e7f57838290600052602060002090600602016040518060c0016040529081600082018054610c85906124e1565b80601f0160208091040260200160405190810160405280929190818152602001828054610cb1906124e1565b8015610cfe5780601f10610cd357610100808354040283529160200191610cfe565b820191906000526020600020905b815481529060010190602001808311610ce157829003601f168201915b5050505050815260200160018201805480602002602001604051908101604052809291908181526020018280548015610d6057602002820191906000526020600020905b81546001600160a01b03168152600190910190602001808311610d42575b5050505050815260200160028201805480602002602001604051908101604052809291908181526020018280548015610db857602002820191906000526020600020905b815481526020019060010190808311610da4575b5050509183525050600382015460ff1615156020820152600482018054604090920191610de4906124e1565b80601f0160208091040260200160405190810160405280929190818152602001828054610e10906124e1565b8015610e5d5780601f10610e3257610100808354040283529160200191610e5d565b820191906000526020600020905b815481529060010190602001808311610e4057829003601f168201915b5050505050815260200160058201548152505081526020019060010190610c52565b505050508152602001600582015481526020016006820154815260200160078201548152505091505b50919050565b6000546001600160a01b031690565b600081815260016020526040812054829103610eeb5760405162461bcd60e51b815260040161028990612660565b600082815260016020819052604090912001546001600160a01b0316331480610f2c5750610f17610eae565b6001600160a01b0316336001600160a01b0316145b610f785760405162461bcd60e51b815260206004820152601d60248201527f4e6f7420617574686f72697a656420746f206c6f636b20657363726f770000006044820152606401610289565b6000828152600160208190526040808320909101805460ff60a81b1916600160a81b1790555183917f3f1af70a9eb954272c173cdd855f3eeca90469e9cfb7b48f44e46ae8d174e27291a25050565b610fcf611b8e565b6001600160a01b0381166110345760405162461bcd60e51b815260206004820152602660248201527f4f776e61626c653a206e6577206f776e657220697320746865207a65726f206160448201526564647265737360d01b6064820152608401610289565b61103d81611bed565b50565b600080805b60048501548110156113175760008560040182815481106110685761106861268f565b90600052602060002090600602016040518060c0016040529081600082018054611091906124e1565b80601f01602080910402602001604051908101604052809291908181526020018280546110bd906124e1565b801561110a5780601f106110df5761010080835404028352916020019161110a565b820191906000526020600020905b8154815290600101906020018083116110ed57829003601f168201915b505050505081526020016001820180548060200260200160405190810160405280929190818152602001828054801561116c57602002820191906000526020600020905b81546001600160a01b0316815260019091019060200180831161114e575b50505050508152602001600282018054806020026020016040519081016040528092919081815260200182805480156111c457602002820191906000526020600020905b8154815260200190600101908083116111b0575b5050509183525050600382015460ff16151560208201526004820180546040909201916111f0906124e1565b80601f016020809104026020016040519081016040528092919081815260200182805461121c906124e1565b80156112695780601f1061123e57610100808354040283529160200191611269565b820191906000526020600020905b81548152906001019060200180831161124c57829003601f168201915b50505050508152602001600582015481525050905060005b81602001515181101561130257856001600160a01b0316826020015182815181106112ae576112ae61268f565b60200260200101516001600160a01b0316036112f057816040015181815181106112da576112da61268f565b6020026020010151846112ed919061279a565b93505b806112fa81612704565b915050611281565b5050808061130f90612704565b915050611045565b509392505050565b6001830154600160a81b900460ff161561134b5760405162461bcd60e51b815260040161028990612623565b6001830154600160a01b900460ff16156113a25760405162461bcd60e51b8152602060048201526018602482015277115cd8dc9bddc81a5cc8185b1c9958591e4818db1bdcd95960421b6044820152606401610289565b81516001146114075760405162461bcd60e51b815260206004820152602b60248201527f4f6e6c79206f6e6520726563697069656e7420616c6c6f77656420666f72206660448201526a756c6c2072656c6561736560a81b6064820152608401610289565b60008260008151811061141c5761141c61268f565b602002602001015190506000805b600386015481101561161b57600086600301828154811061144d5761144d61268f565b60009182526020918290206040805160a081018252600590930290910180546001600160a01b03908116845260018201541693830193909352600283015490820152600382015460608201526004820180549192916080840191906114b1906124e1565b80601f01602080910402602001604051908101604052809291908181526020018280546114dd906124e1565b801561152a5780601f106114ff5761010080835404028352916020019161152a565b820191906000526020600020905b81548152906001019060200180831161150d57829003601f168201915b5050505050815250509050600081602001519050600061154e898460000151611040565b9050600081846040015161156291906126bb565b905080156116045760405163a9059cbb60e01b81526001600160a01b0384169063a9059cbb90611598908a9085906004016126ce565b6020604051808303816000875af11580156115b7573d6000803e3d6000fd5b505050506040513d601f19601f820116820180604052508101906115db91906126e7565b6115f75760405162461bcd60e51b81526004016102899061276b565b611601818761279a565b95505b50505050808061161390612704565b91505061142a565b5060078501805490600061162e83612704565b9190505550600061164786600001548760070154611c3d565b604080516001808252818301909252919250600091906020808301908036833701905050905082816000815181106116815761168161268f565b6020908102919091018101919091526040805160c081018252848152808301899052908101839052600160608201819052608082018890524260a083015260048a018054918201815560009081529290922081519192839260069091029091019081906116ee9082612564565b5060208281015180516117079260018501920190611de1565b5060408201518051611723916002840191602090910190611e46565b50606082015160038201805460ff1916911515919091179055608082015160048201906117509082612564565b5060a0919091015160059091015560018801805460ff60a01b1916600160a01b17905560068801805485919060009061178a90849061279a565b909155505087546040517f533ab03197ebeffbc29962024d3af2abeeaf3cd20c3ea49ed4335e5380b12d0490600090a287546040517f644b3ce26cce6db156a325c1b0d811ec25472d0b64e5042c85231ff706cb8e1e906117f09086908b9087906127ad565b60405180910390a25050505050505050565b825184511461185d5760405162461bcd60e51b815260206004820152602160248201527f4d69736d61746368656420726563697069656e747320616e6420616d6f756e746044820152607360f81b6064820152608401610289565b60078501805490600061186f83612704565b9190505550600061188886600001548760070154611c3d565b90506000805b86518110156119d0576000886003016000815481106118af576118af61268f565b906000526020600020906005020160010160009054906101000a90046001600160a01b03169050806001600160a01b031663a9059cbb8984815181106118f7576118f761268f565b60200260200101518985815181106119115761191161268f565b60200260200101516040518363ffffffff1660e01b81526004016119369291906126ce565b6020604051808303816000875af1158015611955573d6000803e3d6000fd5b505050506040513d601f19601f8201168201806040525081019061197991906126e7565b6119955760405162461bcd60e51b81526004016102899061276b565b8682815181106119a7576119a761268f565b6020026020010151836119ba919061279a565b92505080806119c890612704565b91505061188e565b508315611a8e576000805b6003890154811015611a2d578860030181815481106119fc576119fc61268f565b90600052602060002090600502016002015482611a19919061279a565b915080611a2581612704565b9150506119db565b50808214611a775760405162461bcd60e51b8152602060048201526017602482015276139bdd08185b1b081d1bdad95b9cc81c995b19585cd959604a1b6044820152606401610289565b5060018701805460ff60a01b1916600160a01b1790555b6040805160c08101825283815260208082018990529181018790528515156060820152608081018590524260a082015260048901805460018101825560009182529290208151919260060201908190611ae79082612564565b506020828101518051611b009260018501920190611de1565b5060408201518051611b1c916002840191602090910190611e46565b50606082015160038201805460ff191691151591909117905560808201516004820190611b499082612564565b5060a08201518160050155505086600001547f644b3ce26cce6db156a325c1b0d811ec25472d0b64e5042c85231ff706cb8e1e838888604051610820939291906127ad565b33611b97610eae565b6001600160a01b03161461097d5760405162461bcd60e51b815260206004820181905260248201527f4f776e61626c653a2063616c6c6572206973206e6f7420746865206f776e65726044820152606401610289565b600080546001600160a01b038381166001600160a01b0319831681178455604051919092169283917f8be0079c531659141344cd1fd0a4f28419497f9722a3daafe3b4186f6b6457e09190a35050565b6060611c4883611c79565b611c5183611c79565b604051602001611c629291906127f0565b604051602081830303815290604052905092915050565b60606000611c8683611d0b565b60010190506000816001600160401b03811115611ca557611ca5611e96565b6040519080825280601f01601f191660200182016040528015611ccf576020820181803683370190505b5090508181016020015b600019016f181899199a1a9b1b9c1cb0b131b232b360811b600a86061a8153600a8504945084611cd957509392505050565b60008072184f03e93ff9f4daa797ed6e38ed64bf6a1f0160401b8310611d4a5772184f03e93ff9f4daa797ed6e38ed64bf6a1f0160401b830492506040015b6904ee2d6d415b85acef8160201b8310611d74576904ee2d6d415b85acef8160201b830492506020015b662386f26fc100008310611d9257662386f26fc10000830492506010015b6305f5e1008310611daa576305f5e100830492506008015b6127108310611dbe57612710830492506004015b60648310611dd0576064830492506002015b600a83106103235760010192915050565b828054828255906000526020600020908101928215611e36579160200282015b82811115611e3657825182546001600160a01b0319166001600160a01b03909116178255602090920191600190910190611e01565b50611e42929150611e81565b5090565b828054828255906000526020600020908101928215611e36579160200282015b82811115611e36578251825591602001919060010190611e66565b5b80821115611e425760008155600101611e82565b634e487b7160e01b600052604160045260246000fd5b604051601f8201601f191681016001600160401b0381118282101715611ed457611ed4611e96565b604052919050565b600082601f830112611eed57600080fd5b81356001600160401b03811115611f0657611f06611e96565b611f19601f8201601f1916602001611eac565b818152846020838601011115611f2e57600080fd5b816020850160208301376000918101602001919091529392505050565b60008060408385031215611f5e57600080fd5b8235915060208301356001600160401b03811115611f7b57600080fd5b611f8785828601611edc565b9150509250929050565b600060208284031215611fa357600080fd5b5035919050565b80356001600160a01b0381168114611fc157600080fd5b919050565b60008060008060808587031215611fdc57600080fd5b84359350611fec60208601611faa565b92506040850135915060608501356001600160401b0381111561200e57600080fd5b61201a87828801611edc565b91505092959194509250565b60006001600160401b0382111561203f5761203f611e96565b5060051b60200190565b600082601f83011261205a57600080fd5b8135602061206f61206a83612026565b611eac565b82815260059290921b8401810191818101908684111561208e57600080fd5b8286015b848110156120a95780358352918301918301612092565b509695505050505050565b801515811461103d57600080fd5b8035611fc1816120b4565b600080600080600060a086880312156120e557600080fd5b853594506020808701356001600160401b038082111561210457600080fd5b818901915089601f83011261211857600080fd5b813561212661206a82612026565b81815260059190911b8301840190848101908c83111561214557600080fd5b938501935b8285101561216a5761215b85611faa565b8252938501939085019061214a565b98505050604089013592508083111561218257600080fd5b61218e8a848b01612049565b955061219c60608a016120c2565b945060808901359250808311156121b257600080fd5b50506121c088828901611edc565b9150509295509295909350565b60005b838110156121e85781810151838201526020016121d0565b50506000910152565b600081518084526122098160208601602086016121cd565b601f01601f19169290920160200192915050565b600081518084526020808501808196508360051b8101915082860160005b858110156122a5578284038952815180516001600160a01b039081168652868201511686860152604080820151908601526060808201519086015260809081015160a091860182905290612291818701836121f1565b9a87019a955050509084019060010161223b565b5091979650505050505050565b600081518084526020808501945080840160005b838110156122eb5781516001600160a01b0316875295820195908201906001016122c6565b509495945050505050565b600081518084526020808501945080840160005b838110156122eb5781518752958201959082019060010161230a565b600081518084526020808501808196508360051b8101915082860160005b858110156122a5578284038952815160c08151818752612366828801826121f1565b915050868201518682038888015261237e82826122b2565b9150506040808301518783038289015261239883826122f6565b9250505060608083015115158188015250608080830151878303828901526123c083826121f1565b60a0948501519890940197909752505098850198935090840190600101612344565b60208152815160208201526000602083015161240960408401826001600160a01b03169052565b506040830151801515606084015250606083015180151560808401525060808301516101408060a08501526124426101608501836121f1565b915060a0850151601f19808685030160c0870152612460848361221d565b935060c08701519150808685030160e08701525061247e8382612326565b60e08701516101008781019190915287015161012080880191909152909601519190940152509192915050565b6001600160a01b0391909116815260200190565b6000602082840312156124d157600080fd5b6124da82611faa565b9392505050565b600181811c908216806124f557607f821691505b602082108103610ea857634e487b7160e01b600052602260045260246000fd5b601f82111561255f57600081815260208120601f850160051c8101602086101561253c5750805b601f850160051c820191505b8181101561255b57828155600101612548565b5050505b505050565b81516001600160401b0381111561257d5761257d611e96565b6125918161258b84546124e1565b84612515565b602080601f8311600181146125c657600084156125ae5750858301515b600019600386901b1c1916600185901b17855561255b565b600085815260208120601f198616915b828110156125f5578886015182559484019460019091019084016125d6565b50858210156126135787850151600019600388901b60f8161c191681555b5050505050600190811b01905550565b60208082526010908201526f115cd8dc9bddc81a5cc81b1bd8dad95960821b604082015260600190565b6020815260006124da60208301846121f1565b602080825260159082015274115cd8dc9bddc8191bd95cc81b9bdd08195e1a5cdd605a1b604082015260600190565b634e487b7160e01b600052603260045260246000fd5b634e487b7160e01b600052601160045260246000fd5b81810381811115610323576103236126a5565b6001600160a01b03929092168252602082015260400190565b6000602082840312156126f957600080fd5b81516124da816120b4565b600060018201612716576127166126a5565b5060010190565b60208082526010908201526f115cd8dc9bddc81a5cc818db1bdcd95960821b604082015260600190565b6001600160a01b039384168152919092166020820152604081019190915260600190565b602080825260159082015274151bdad95b881d1c985b9cd9995c8819985a5b1959605a1b604082015260600190565b80820180821115610323576103236126a5565b6060815260006127c060608301866121f1565b82810360208401526127d281866122b2565b905082810360408401526127e681856122f6565b9695505050505050565b600083516128028184602088016121cd565b602d60f81b90830190815283516128208160018401602088016121cd565b0160010194935050505056fea2646970667358221220ceb6af4430aeda1ca22435626d24a6381dc263e722f0c39314a67afc7783d9cd64736f6c63430008130033",
  "devdoc": {
    "kind": "dev",
    "methods": {
      "owner()": {
        "details": "Returns the address of the current owner."
      },
      "renounceOwnership()": {
        "details": "Leaves the contract without owner. It will not be possible to call `onlyOwner` functions. Can only be called by the current owner. NOTE: Renouncing ownership will leave the contract without an owner, thereby disabling any functionality that is only available to the owner."
      },
      "transferOwnership(address)": {
        "details": "Transfers ownership of the contract to a new account (`newOwner`). Can only be called by the current owner."
      }
    },
    "version": 1
  },
  "userdoc": {
    "kind": "user",
    "methods": {},
    "version": 1
  },
  "storageLayout": {
    "storage": [
      {
        "astId": 7,
        "contract": "contracts/Escrow.sol:Escrow",
        "label": "_owner",
        "offset": 0,
        "slot": "0",
        "type": "t_address"
      },
      {
        "astId": 1554,
        "contract": "contracts/Escrow.sol:Escrow",
        "label": "escrows",
        "offset": 0,
        "slot": "1",
        "type": "t_mapping(t_uint256,t_struct(EscrowDetails)1549_storage)"
      },
      {
        "astId": 1557,
        "contract": "contracts/Escrow.sol:Escrow",
        "label": "escrowCounter",
        "offset": 0,
        "slot": "2",
        "type": "t_struct(Counter)218_storage"
      },
      {
        "astId": 1560,
        "contract": "contracts/Escrow.sol:Escrow",
        "label": "releaseCounter",
        "offset": 0,
        "slot": "3",
        "type": "t_struct(Counter)218_storage"
      }
    ],
    "types": {
      "t_address": {
        "encoding": "inplace",
        "label": "address",
        "numberOfBytes": "20"
      },
      "t_array(t_address)dyn_storage": {
        "base": "t_address",
        "encoding": "dynamic_array",
        "label": "address[]",
        "numberOfBytes": "32"
      },
      "t_array(t_struct(ReleaseRecord)1524_storage)dyn_storage": {
        "base": "t_struct(ReleaseRecord)1524_storage",
        "encoding": "dynamic_array",
        "label": "struct Escrow.ReleaseRecord[]",
        "numberOfBytes": "32"
      },
      "t_array(t_struct(TokenDeposit)1509_storage)dyn_storage": {
        "base": "t_struct(TokenDeposit)1509_storage",
        "encoding": "dynamic_array",
        "label": "struct Escrow.TokenDeposit[]",
        "numberOfBytes": "32"
      },
      "t_array(t_uint256)dyn_storage": {
        "base": "t_uint256",
        "encoding": "dynamic_array",
        "label": "uint256[]",
        "numberOfBytes": "32"
      },
      "t_bool": {
        "encoding": "inplace",
        "label": "bool",
        "numberOfBytes": "1"
      },
      "t_mapping(t_uint256,t_struct(EscrowDetails)1549_storage)": {
        "encoding": "mapping",
        "key": "t_uint256",
        "label": "mapping(uint256 => struct Escrow.EscrowDetails)",
        "numberOfBytes": "32",
        "value": "t_struct(EscrowDetails)1549_storage"
      },
      "t_string_storage": {
        "encoding": "bytes",
        "label": "string",
        "numberOfBytes": "32"
      },
      "t_struct(Counter)218_storage": {
        "encoding": "inplace",
        "label": "struct Counters.Counter",
        "members": [
          {
            "astId": 217,
            "contract": "contracts/Escrow.sol:Escrow",
            "label": "_value",
            "offset": 0,
            "slot": "0",
            "type": "t_uint256"
          }
        ],
        "numberOfBytes": "32"
      },
      "t_struct(EscrowDetails)1549_storage": {
        "encoding": "inplace",
        "label": "struct Escrow.EscrowDetails",
        "members": [
          {
            "astId": 1526,
            "contract": "contracts/Escrow.sol:Escrow",
            "label": "escrowId",
            "offset": 0,
            "slot": "0",
            "type": "t_uint256"
          },
          {
            "astId": 1528,
            "contract": "contracts/Escrow.sol:Escrow",
            "label": "creator",
            "offset": 0,
            "slot": "1",
            "type": "t_address"
          },
          {
            "astId": 1530,
            "contract": "contracts/Escrow.sol:Escrow",
            "label": "isClosed",
            "offset": 20,
            "slot": "1",
            "type": "t_bool"
          },
          {
            "astId": 1532,
            "contract": "contracts/Escrow.sol:Escrow",
            "label": "isLocked",
            "offset": 21,
            "slot": "1",
            "type": "t_bool"
          },
          {
            "astId": 1534,
            "contract": "contracts/Escrow.sol:Escrow",
            "label": "dataJson",
            "offset": 0,
            "slot": "2",
            "type": "t_string_storage"
          },
          {
            "astId": 1538,
            "contract": "contracts/Escrow.sol:Escrow",
            "label": "deposits",
            "offset": 0,
            "slot": "3",
            "type": "t_array(t_struct(TokenDeposit)1509_storage)dyn_storage"
          },
          {
            "astId": 1542,
            "contract": "contracts/Escrow.sol:Escrow",
            "label": "releases",
            "offset": 0,
            "slot": "4",
            "type": "t_array(t_struct(ReleaseRecord)1524_storage)dyn_storage"
          },
          {
            "astId": 1544,
            "contract": "contracts/Escrow.sol:Escrow",
            "label": "totalTokensDeposited",
            "offset": 0,
            "slot": "5",
            "type": "t_uint256"
          },
          {
            "astId": 1546,
            "contract": "contracts/Escrow.sol:Escrow",
            "label": "totalTokensReleased",
            "offset": 0,
            "slot": "6",
            "type": "t_uint256"
          },
          {
            "astId": 1548,
            "contract": "contracts/Escrow.sol:Escrow",
            "label": "releaseCount",
            "offset": 0,
            "slot": "7",
            "type": "t_uint256"
          }
        ],
        "numberOfBytes": "256"
      },
      "t_struct(ReleaseRecord)1524_storage": {
        "encoding": "inplace",
        "label": "struct Escrow.ReleaseRecord",
        "members": [
          {
            "astId": 1511,
            "contract": "contracts/Escrow.sol:Escrow",
            "label": "releaseId",
            "offset": 0,
            "slot": "0",
            "type": "t_string_storage"
          },
          {
            "astId": 1514,
            "contract": "contracts/Escrow.sol:Escrow",
            "label": "recipients",
            "offset": 0,
            "slot": "1",
            "type": "t_array(t_address)dyn_storage"
          },
          {
            "astId": 1517,
            "contract": "contracts/Escrow.sol:Escrow",
            "label": "amounts",
            "offset": 0,
            "slot": "2",
            "type": "t_array(t_uint256)dyn_storage"
          },
          {
            "astId": 1519,
            "contract": "contracts/Escrow.sol:Escrow",
            "label": "isFullRelease",
            "offset": 0,
            "slot": "3",
            "type": "t_bool"
          },
          {
            "astId": 1521,
            "contract": "contracts/Escrow.sol:Escrow",
            "label": "dataJson",
            "offset": 0,
            "slot": "4",
            "type": "t_string_storage"
          },
          {
            "astId": 1523,
            "contract": "contracts/Escrow.sol:Escrow",
            "label": "timestamp",
            "offset": 0,
            "slot": "5",
            "type": "t_uint256"
          }
        ],
        "numberOfBytes": "192"
      },
      "t_struct(TokenDeposit)1509_storage": {
        "encoding": "inplace",
        "label": "struct Escrow.TokenDeposit",
        "members": [
          {
            "astId": 1500,
            "contract": "contracts/Escrow.sol:Escrow",
            "label": "depositor",
            "offset": 0,
            "slot": "0",
            "type": "t_address"
          },
          {
            "astId": 1502,
            "contract": "contracts/Escrow.sol:Escrow",
            "label": "tokenAddress",
            "offset": 0,
            "slot": "1",
            "type": "t_address"
          },
          {
            "astId": 1504,
            "contract": "contracts/Escrow.sol:Escrow",
            "label": "amount",
            "offset": 0,
            "slot": "2",
            "type": "t_uint256"
          },
          {
            "astId": 1506,
            "contract": "contracts/Escrow.sol:Escrow",
            "label": "timestamp",
            "offset": 0,
            "slot": "3",
            "type": "t_uint256"
          },
          {
            "astId": 1508,
            "contract": "contracts/Escrow.sol:Escrow",
            "label": "jsonData",
            "offset": 0,
            "slot": "4",
            "type": "t_string_storage"
          }
        ],
        "numberOfBytes": "160"
      },
      "t_uint256": {
        "encoding": "inplace",
        "label": "uint256",
        "numberOfBytes": "32"
      }
    }
  }
}