{
  "address": "0x6203078AAcE0c54bb1ae97aa97142f1E3512D3e7",
  "abi": [
    {
      "anonymous": false,
      "inputs": [
        {
          "indexed": true,
          "internalType": "uint256",
          "name": "escrowId",
          "type": "uint256"
        }
      ],
      "name": "EscrowClosed",
      "type": "event"
    },
    {
      "anonymous": false,
      "inputs": [
        {
          "indexed": true,
          "internalType": "uint256",
          "name": "escrowId",
          "type": "uint256"
        },
        {
          "indexed": false,
          "internalType": "address",
          "name": "creator",
          "type": "address"
        }
      ],
      "name": "EscrowCreated",
      "type": "event"
    },
    {
      "anonymous": false,
      "inputs": [
        {
          "indexed": true,
          "internalType": "uint256",
          "name": "escrowId",
          "type": "uint256"
        }
      ],
      "name": "EscrowLocked",
      "type": "event"
    },
    {
      "anonymous": false,
      "inputs": [
        {
          "indexed": true,
          "internalType": "uint256",
          "name": "escrowId",
          "type": "uint256"
        },
        {
          "indexed": false,
          "internalType": "string",
          "name": "newMetadata",
          "type": "string"
        }
      ],
      "name": "EscrowModified",
      "type": "event"
    },
    {
      "anonymous": false,
      "inputs": [
        {
          "indexed": true,
          "internalType": "address",
          "name": "previousOwner",
          "type": "address"
        },
        {
          "indexed": true,
          "internalType": "address",
          "name": "newOwner",
          "type": "address"
        }
      ],
      "name": "OwnershipTransferred",
      "type": "event"
    },
    {
      "anonymous": false,
      "inputs": [
        {
          "indexed": true,
          "internalType": "uint256",
          "name": "escrowId",
          "type": "uint256"
        },
        {
          "indexed": false,
          "internalType": "address",
          "name": "depositor",
          "type": "address"
        },
        {
          "indexed": false,
          "internalType": "address",
          "name": "tokenAddress",
          "type": "address"
        },
        {
          "indexed": false,
          "internalType": "uint256",
          "name": "amount",
          "type": "uint256"
        }
      ],
      "name": "TokensDeposited",
      "type": "event"
    },
    {
      "anonymous": false,
      "inputs": [
        {
          "indexed": true,
          "internalType": "uint256",
          "name": "escrowId",
          "type": "uint256"
        },
        {
          "indexed": false,
          "internalType": "string",
          "name": "releaseId",
          "type": "string"
        },
        {
          "indexed": false,
          "internalType": "address[]",
          "name": "recipients",
          "type": "address[]"
        },
        {
          "indexed": false,
          "internalType": "uint256[]",
          "name": "amounts",
          "type": "uint256[]"
        }
      ],
      "name": "TokensReleased",
      "type": "event"
    },
    {
      "inputs": [
        {
          "internalType": "uint256",
          "name": "escrowId",
          "type": "uint256"
        },
        {
          "internalType": "address",
          "name": "tokenAddress",
          "type": "address"
        },
        {
          "internalType": "uint256",
          "name": "amount",
          "type": "uint256"
        }
      ],
      "name": "depositTokens",
      "outputs": [],
      "stateMutability": "nonpayable",
      "type": "function"
    },
    {
      "inputs": [
        {
          "internalType": "uint256",
          "name": "escrowId",
          "type": "uint256"
        }
      ],
      "name": "lockEscrow",
      "outputs": [],
      "stateMutability": "nonpayable",
      "type": "function"
    },
    {
      "inputs": [
        {
          "internalType": "uint256",
          "name": "escrowId",
          "type": "uint256"
        },
        {
          "internalType": "string",
          "name": "metadataJson",
          "type": "string"
        }
      ],
      "name": "manageEscrow",
      "outputs": [
        {
          "internalType": "uint256",
          "name": "",
          "type": "uint256"
        }
      ],
      "stateMutability": "nonpayable",
      "type": "function"
    },
    {
      "inputs": [],
      "name": "owner",
      "outputs": [
        {
          "internalType": "address",
          "name": "",
          "type": "address"
        }
      ],
      "stateMutability": "view",
      "type": "function"
    },
    {
      "inputs": [
        {
          "internalType": "uint256",
          "name": "escrowId",
          "type": "uint256"
        }
      ],
      "name": "refund",
      "outputs": [],
      "stateMutability": "nonpayable",
      "type": "function"
    },
    {
      "inputs": [
        {
          "internalType": "uint256",
          "name": "escrowId",
          "type": "uint256"
        },
        {
          "internalType": "address[]",
          "name": "recipients",
          "type": "address[]"
        },
        {
          "internalType": "uint256[]",
          "name": "amounts",
          "type": "uint256[]"
        },
        {
          "internalType": "bool",
          "name": "isFullRelease",
          "type": "bool"
        },
        {
          "internalType": "string",
          "name": "dataJson",
          "type": "string"
        }
      ],
      "name": "release",
      "outputs": [],
      "stateMutability": "nonpayable",
      "type": "function"
    },
    {
      "inputs": [],
      "name": "renounceOwnership",
      "outputs": [],
      "stateMutability": "nonpayable",
      "type": "function"
    },
    {
      "inputs": [
        {
          "internalType": "address",
          "name": "newOwner",
          "type": "address"
        }
      ],
      "name": "transferOwnership",
      "outputs": [],
      "stateMutability": "nonpayable",
      "type": "function"
    }
  ],
  "transactionHash": "0x146bd6021a86bcd38ac380cf172d6e298af59f402578f8231d9df5e347476048",
  "args": [],
  "numDeployments": 1,
  "solcInputHash": "da8a3ce3c867709dd80ddab9a8149e68",
  "bytecode": "0x608060405234801561001057600080fd5b5061001a3361001f565b61006f565b600080546001600160a01b038381166001600160a01b0319831681178455604051919092169283917f8be0079c531659141344cd1fd0a4f28419497f9722a3daafe3b4186f6b6457e09190a35050565b611f528061007e6000396000f3fe608060405234801561001057600080fd5b50600436106100785760003560e01c8063015bf2641461007d57806309111cf714610092578063278ecde1146100b85780633a0f5734146100cb578063715018a6146100de5780638da5cb5b146100e65780638e4928af146100fb578063f2fde38b1461010e575b600080fd5b61009061008b366004611800565b610121565b005b6100a56100a03660046118ea565b610357565b6040519081526020015b60405180910390f35b6100906100c6366004611930565b61052f565b6100906100d93660046119f0565b61073f565b610090610879565b6100ee61088d565b6040516100af9190611af0565b610090610109366004611930565b61089c565b61009061011c366004611b04565b6109a6565b6000838152600160205260408120548491036101585760405162461bcd60e51b815260040161014f90611b26565b60405180910390fd5b600084815260016020819052604090912001548490600160a01b900460ff16156101945760405162461bcd60e51b815260040161014f90611b55565b600083116101f25760405162461bcd60e51b815260206004820152602560248201527f4465706f73697420616d6f756e74206d75737420626520677265617465722074604482015264068616e20360dc1b606482015260840161014f565b6040516323b872dd60e01b815284906001600160a01b038216906323b872dd9061022490339030908990600401611b7f565b6020604051808303816000875af1158015610243573d6000803e3d6000fd5b505050506040513d601f19601f820116820180604052508101906102679190611ba3565b6102835760405162461bcd60e51b815260040161014f90611bc0565b60008681526001602081815260408084208151608081018352338082526001600160a01b038c81168387019081528386018d8152426060860190815260039687018054808c018255908c5298909a209451600490980290940180549783166001600160a01b03199889161781559051978101805498909216979096169690961790955551600284015593519190930155905187917f435495c77802cf4c1ed98c74a7ce8799db241d5473d9fd4963eb8b009d84745491610347919089908990611b7f565b60405180910390a2505050505050565b60008260000361040b5761036f600280546001019055565b600254600081815260016020819052604090912082815590810180546001600160b01b0319163361ffff60a01b1916179055909350600281016103b28482611c78565b5060006005820181905560068201819055600782015560405184907f10cef5ec72e57e7983d937eb064757a668131fb3c724a8a7b1ee3fbd334fa3d6906103fa903390611af0565b60405180910390a283915050610529565b600083815260016020819052604090912001546001600160a01b031633148061044c575061043761088d565b6001600160a01b0316336001600160a01b0316145b6104985760405162461bcd60e51b815260206004820152601f60248201527f4e6f7420617574686f72697a656420746f206d6f6469667920657363726f7700604482015260640161014f565b60008381526001602081905260409091200154600160a81b900460ff16156104d25760405162461bcd60e51b815260040161014f90611d37565b60008381526001602052604090206002016104ed8382611c78565b50827fd6af13caf372ab2063093a7c034c3db1f08a29a9202686d2b8f4599ee55112f88360405161051e9190611db1565b60405180910390a250815b92915050565b60008181526001602052604081205482910361055d5760405162461bcd60e51b815260040161014f90611b26565b600082815260016020819052604090912090810154600160a01b900460ff166105c85760405162461bcd60e51b815260206004820152601f60248201527f457363726f77206d75737420626520636c6f73656420746f20726566756e6400604482015260640161014f565b60005b60038201548110156107395760008260030182815481106105ee576105ee611dc4565b6000918252602080832060408051608081018252600490940290910180546001600160a01b03908116808652600183015490911693850193909352600281015491840182905260030154606084015291935090919061064e908690610a1f565b9050600061065c8284611df0565b90508015610722576020840151845160405163a9059cbb60e01b81526001600160a01b0383169163a9059cbb9161069891908690600401611e03565b6020604051808303816000875af11580156106b7573d6000803e3d6000fd5b505050506040513d601f19601f820116820180604052508101906106db9190611ba3565b6107205760405162461bcd60e51b81526020600482015260166024820152751499599d5b99081d1c985b9cd9995c8819985a5b195960521b604482015260640161014f565b505b50505050808061073190611e1c565b9150506105cb565b50505050565b60008581526001602052604081205486910361076d5760405162461bcd60e51b815260040161014f90611b26565b600086815260016020819052604090912001548690600160a01b900460ff16156107a95760405162461bcd60e51b815260040161014f90611b55565b6000878152600160208190526040909120908101546001600160a01b03163314806107ec57506107d761088d565b6001600160a01b0316336001600160a01b0316145b6108345760405162461bcd60e51b81526020600482015260196024820152784e6f7420617574686f72697a656420746f2072656c6561736560381b604482015260640161014f565b865160011480156108425750845b801561084d57508551155b156108625761085d818886610cfe565b61086f565b61086f818888888861113f565b5050505050505050565b6108816114dc565b61088b600061153b565b565b6000546001600160a01b031690565b6000818152600160205260408120548291036108ca5760405162461bcd60e51b815260040161014f90611b26565b600082815260016020819052604090912001546001600160a01b031633148061090b57506108f661088d565b6001600160a01b0316336001600160a01b0316145b6109575760405162461bcd60e51b815260206004820152601d60248201527f4e6f7420617574686f72697a656420746f206c6f636b20657363726f77000000604482015260640161014f565b6000828152600160208190526040808320909101805460ff60a81b1916600160a81b1790555183917f3f1af70a9eb954272c173cdd855f3eeca90469e9cfb7b48f44e46ae8d174e27291a25050565b6109ae6114dc565b6001600160a01b038116610a135760405162461bcd60e51b815260206004820152602660248201527f4f776e61626c653a206e6577206f776e657220697320746865207a65726f206160448201526564647265737360d01b606482015260840161014f565b610a1c8161153b565b50565b600080805b6004850154811015610cf6576000856004018281548110610a4757610a47611dc4565b90600052602060002090600602016040518060c0016040529081600082018054610a7090611bef565b80601f0160208091040260200160405190810160405280929190818152602001828054610a9c90611bef565b8015610ae95780601f10610abe57610100808354040283529160200191610ae9565b820191906000526020600020905b815481529060010190602001808311610acc57829003601f168201915b5050505050815260200160018201805480602002602001604051908101604052809291908181526020018280548015610b4b57602002820191906000526020600020905b81546001600160a01b03168152600190910190602001808311610b2d575b5050505050815260200160028201805480602002602001604051908101604052809291908181526020018280548015610ba357602002820191906000526020600020905b815481526020019060010190808311610b8f575b5050509183525050600382015460ff1615156020820152600482018054604090920191610bcf90611bef565b80601f0160208091040260200160405190810160405280929190818152602001828054610bfb90611bef565b8015610c485780601f10610c1d57610100808354040283529160200191610c48565b820191906000526020600020905b815481529060010190602001808311610c2b57829003601f168201915b50505050508152602001600582015481525050905060005b816020015151811015610ce157856001600160a01b031682602001518281518110610c8d57610c8d611dc4565b60200260200101516001600160a01b031603610ccf5781604001518181518110610cb957610cb9611dc4565b602002602001015184610ccc9190611e35565b93505b80610cd981611e1c565b915050610c60565b50508080610cee90611e1c565b915050610a24565b509392505050565b6001830154600160a81b900460ff1615610d2a5760405162461bcd60e51b815260040161014f90611d37565b6001830154600160a01b900460ff1615610d815760405162461bcd60e51b8152602060048201526018602482015277115cd8dc9bddc81a5cc8185b1c9958591e4818db1bdcd95960421b604482015260640161014f565b8151600114610de65760405162461bcd60e51b815260206004820152602b60248201527f4f6e6c79206f6e6520726563697069656e7420616c6c6f77656420666f72206660448201526a756c6c2072656c6561736560a81b606482015260840161014f565b600082600081518110610dfb57610dfb611dc4565b602002602001015190506000805b6003860154811015610f58576000866003018281548110610e2c57610e2c611dc4565b6000918252602080832060408051608081018252600490940290910180546001600160a01b0390811680865260018301549091169385018490526002820154928501929092526003015460608401529193509190610e8b908a90610a1f565b90506000818460400151610e9f9190611df0565b90508015610f415760405163a9059cbb60e01b81526001600160a01b0384169063a9059cbb90610ed5908a908590600401611e03565b6020604051808303816000875af1158015610ef4573d6000803e3d6000fd5b505050506040513d601f19601f82011682018060405250810190610f189190611ba3565b610f345760405162461bcd60e51b815260040161014f90611bc0565b610f3e8187611e35565b95505b505050508080610f5090611e1c565b915050610e09565b50600785018054906000610f6b83611e1c565b91905055506000610f848660000154876007015461158b565b60408051600180825281830190925291925060009190602080830190803683370190505090508281600081518110610fbe57610fbe611dc4565b6020908102919091018101919091526040805160c081018252848152808301899052908101839052600160608201819052608082018890524260a083015260048a0180549182018155600090815292909220815191928392600690910290910190819061102b9082611c78565b506020828101518051611044926001850192019061172f565b5060408201518051611060916002840191602090910190611794565b50606082015160038201805460ff19169115159190911790556080820151600482019061108d9082611c78565b5060a0919091015160059091015560018801805460ff60a01b1916600160a01b1790556006880180548591906000906110c7908490611e35565b909155505087546040517f533ab03197ebeffbc29962024d3af2abeeaf3cd20c3ea49ed4335e5380b12d0490600090a287546040517f644b3ce26cce6db156a325c1b0d811ec25472d0b64e5042c85231ff706cb8e1e9061112d9086908b908790611e48565b60405180910390a25050505050505050565b825184511461119a5760405162461bcd60e51b815260206004820152602160248201527f4d69736d61746368656420726563697069656e747320616e6420616d6f756e746044820152607360f81b606482015260840161014f565b6007850180549060006111ac83611e1c565b919050555060006111c58660000154876007015461158b565b90506000805b865181101561130d576000886003016000815481106111ec576111ec611dc4565b906000526020600020906004020160010160009054906101000a90046001600160a01b03169050806001600160a01b031663a9059cbb89848151811061123457611234611dc4565b602002602001015189858151811061124e5761124e611dc4565b60200260200101516040518363ffffffff1660e01b8152600401611273929190611e03565b6020604051808303816000875af1158015611292573d6000803e3d6000fd5b505050506040513d601f19601f820116820180604052508101906112b69190611ba3565b6112d25760405162461bcd60e51b815260040161014f90611bc0565b8682815181106112e4576112e4611dc4565b6020026020010151836112f79190611e35565b925050808061130590611e1c565b9150506111cb565b5083156113cb576000805b600389015481101561136a5788600301818154811061133957611339611dc4565b906000526020600020906004020160020154826113569190611e35565b91508061136281611e1c565b915050611318565b508082146113b45760405162461bcd60e51b8152602060048201526017602482015276139bdd08185b1b081d1bdad95b9cc81c995b19585cd959604a1b604482015260640161014f565b5060018701805460ff60a01b1916600160a01b1790555b6040805160c08101825283815260208082018990529181018790528515156060820152608081018590524260a0820152600489018054600181018255600091825292902081519192600602019081906114249082611c78565b50602082810151805161143d926001850192019061172f565b5060408201518051611459916002840191602090910190611794565b50606082015160038201805460ff1916911515919091179055608082015160048201906114869082611c78565b5060a08201518160050155505086600001547f644b3ce26cce6db156a325c1b0d811ec25472d0b64e5042c85231ff706cb8e1e8388886040516114cb93929190611e48565b60405180910390a250505050505050565b336114e561088d565b6001600160a01b03161461088b5760405162461bcd60e51b815260206004820181905260248201527f4f776e61626c653a2063616c6c6572206973206e6f7420746865206f776e6572604482015260640161014f565b600080546001600160a01b038381166001600160a01b0319831681178455604051919092169283917f8be0079c531659141344cd1fd0a4f28419497f9722a3daafe3b4186f6b6457e09190a35050565b6060611596836115c7565b61159f836115c7565b6040516020016115b0929190611ee0565b604051602081830303815290604052905092915050565b606060006115d483611659565b60010190506000816001600160401b038111156115f3576115f3611835565b6040519080825280601f01601f19166020018201604052801561161d576020820181803683370190505b5090508181016020015b600019016f181899199a1a9b1b9c1cb0b131b232b360811b600a86061a8153600a850494508461162757509392505050565b60008072184f03e93ff9f4daa797ed6e38ed64bf6a1f0160401b83106116985772184f03e93ff9f4daa797ed6e38ed64bf6a1f0160401b830492506040015b6904ee2d6d415b85acef8160201b83106116c2576904ee2d6d415b85acef8160201b830492506020015b662386f26fc1000083106116e057662386f26fc10000830492506010015b6305f5e10083106116f8576305f5e100830492506008015b612710831061170c57612710830492506004015b6064831061171e576064830492506002015b600a83106105295760010192915050565b828054828255906000526020600020908101928215611784579160200282015b8281111561178457825182546001600160a01b0319166001600160a01b0390911617825560209092019160019091019061174f565b506117909291506117cf565b5090565b828054828255906000526020600020908101928215611784579160200282015b828111156117845782518255916020019190600101906117b4565b5b8082111561179057600081556001016117d0565b80356001600160a01b03811681146117fb57600080fd5b919050565b60008060006060848603121561181557600080fd5b83359250611825602085016117e4565b9150604084013590509250925092565b634e487b7160e01b600052604160045260246000fd5b604051601f8201601f191681016001600160401b038111828210171561187357611873611835565b604052919050565b600082601f83011261188c57600080fd5b81356001600160401b038111156118a5576118a5611835565b6118b8601f8201601f191660200161184b565b8181528460208386010111156118cd57600080fd5b816020850160208301376000918101602001919091529392505050565b600080604083850312156118fd57600080fd5b8235915060208301356001600160401b0381111561191a57600080fd5b6119268582860161187b565b9150509250929050565b60006020828403121561194257600080fd5b5035919050565b60006001600160401b0382111561196257611962611835565b5060051b60200190565b600082601f83011261197d57600080fd5b8135602061199261198d83611949565b61184b565b82815260059290921b840181019181810190868411156119b157600080fd5b8286015b848110156119cc57803583529183019183016119b5565b509695505050505050565b8015158114610a1c57600080fd5b80356117fb816119d7565b600080600080600060a08688031215611a0857600080fd5b853594506020808701356001600160401b0380821115611a2757600080fd5b818901915089601f830112611a3b57600080fd5b8135611a4961198d82611949565b81815260059190911b8301840190848101908c831115611a6857600080fd5b938501935b82851015611a8d57611a7e856117e4565b82529385019390850190611a6d565b985050506040890135925080831115611aa557600080fd5b611ab18a848b0161196c565b9550611abf60608a016119e5565b94506080890135925080831115611ad557600080fd5b5050611ae38882890161187b565b9150509295509295909350565b6001600160a01b0391909116815260200190565b600060208284031215611b1657600080fd5b611b1f826117e4565b9392505050565b602080825260159082015274115cd8dc9bddc8191bd95cc81b9bdd08195e1a5cdd605a1b604082015260600190565b60208082526010908201526f115cd8dc9bddc81a5cc818db1bdcd95960821b604082015260600190565b6001600160a01b039384168152919092166020820152604081019190915260600190565b600060208284031215611bb557600080fd5b8151611b1f816119d7565b602080825260159082015274151bdad95b881d1c985b9cd9995c8819985a5b1959605a1b604082015260600190565b600181811c90821680611c0357607f821691505b602082108103611c2357634e487b7160e01b600052602260045260246000fd5b50919050565b601f821115611c7357600081815260208120601f850160051c81016020861015611c505750805b601f850160051c820191505b81811015611c6f57828155600101611c5c565b5050505b505050565b81516001600160401b03811115611c9157611c91611835565b611ca581611c9f8454611bef565b84611c29565b602080601f831160018114611cda5760008415611cc25750858301515b600019600386901b1c1916600185901b178555611c6f565b600085815260208120601f198616915b82811015611d0957888601518255948401946001909101908401611cea565b5085821015611d275787850151600019600388901b60f8161c191681555b5050505050600190811b01905550565b60208082526010908201526f115cd8dc9bddc81a5cc81b1bd8dad95960821b604082015260600190565b60005b83811015611d7c578181015183820152602001611d64565b50506000910152565b60008151808452611d9d816020860160208601611d61565b601f01601f19169290920160200192915050565b602081526000611b1f6020830184611d85565b634e487b7160e01b600052603260045260246000fd5b634e487b7160e01b600052601160045260246000fd5b8181038181111561052957610529611dda565b6001600160a01b03929092168252602082015260400190565b600060018201611e2e57611e2e611dda565b5060010190565b8082018082111561052957610529611dda565b606081526000611e5b6060830186611d85565b82810360208481019190915285518083528682019282019060005b81811015611e9b5784516001600160a01b031683529383019391830191600101611e76565b50508481036040860152855180825290820192508186019060005b81811015611ed257825185529383019391830191600101611eb6565b509298975050505050505050565b60008351611ef2818460208801611d61565b602d60f81b9083019081528351611f10816001840160208801611d61565b0160010194935050505056fea264697066735822122081a54c8aef6fdd0eae207a5ddae55b669def623db1ea813eeb2ee6fef49581b564736f6c63430008130033",
  "devdoc": {
    "kind": "dev",
    "methods": {
      "owner()": {
        "details": "Returns the address of the current owner."
      },
      "renounceOwnership()": {
        "details": "Leaves the contract without owner. It will not be possible to call `onlyOwner` functions. Can only be called by the current owner. NOTE: Renouncing ownership will leave the contract without an owner, thereby disabling any functionality that is only available to the owner."
      },
      "transferOwnership(address)": {
        "details": "Transfers ownership of the contract to a new account (`newOwner`). Can only be called by the current owner."
      }
    },
    "version": 1
  },
  "userdoc": {
    "kind": "user",
    "methods": {},
    "version": 1
  },
  "storageLayout": {
    "storage": [
      {
        "astId": 7,
        "contract": "contracts/Escrow.sol:Escrow",
        "label": "_owner",
        "offset": 0,
        "slot": "0",
        "type": "t_address"
      },
      {
        "astId": 5478,
        "contract": "contracts/Escrow.sol:Escrow",
        "label": "escrows",
        "offset": 0,
        "slot": "1",
        "type": "t_mapping(t_uint256,t_struct(EscrowDetails)5473_storage)"
      },
      {
        "astId": 5481,
        "contract": "contracts/Escrow.sol:Escrow",
        "label": "escrowCounter",
        "offset": 0,
        "slot": "2",
        "type": "t_struct(Counter)3017_storage"
      },
      {
        "astId": 5484,
        "contract": "contracts/Escrow.sol:Escrow",
        "label": "releaseCounter",
        "offset": 0,
        "slot": "3",
        "type": "t_struct(Counter)3017_storage"
      }
    ],
    "types": {
      "t_address": {
        "encoding": "inplace",
        "label": "address",
        "numberOfBytes": "20"
      },
      "t_array(t_address)dyn_storage": {
        "base": "t_address",
        "encoding": "dynamic_array",
        "label": "address[]",
        "numberOfBytes": "32"
      },
      "t_array(t_struct(ReleaseRecord)5448_storage)dyn_storage": {
        "base": "t_struct(ReleaseRecord)5448_storage",
        "encoding": "dynamic_array",
        "label": "struct Escrow.ReleaseRecord[]",
        "numberOfBytes": "32"
      },
      "t_array(t_struct(TokenDeposit)5433_storage)dyn_storage": {
        "base": "t_struct(TokenDeposit)5433_storage",
        "encoding": "dynamic_array",
        "label": "struct Escrow.TokenDeposit[]",
        "numberOfBytes": "32"
      },
      "t_array(t_uint256)dyn_storage": {
        "base": "t_uint256",
        "encoding": "dynamic_array",
        "label": "uint256[]",
        "numberOfBytes": "32"
      },
      "t_bool": {
        "encoding": "inplace",
        "label": "bool",
        "numberOfBytes": "1"
      },
      "t_mapping(t_uint256,t_struct(EscrowDetails)5473_storage)": {
        "encoding": "mapping",
        "key": "t_uint256",
        "label": "mapping(uint256 => struct Escrow.EscrowDetails)",
        "numberOfBytes": "32",
        "value": "t_struct(EscrowDetails)5473_storage"
      },
      "t_string_storage": {
        "encoding": "bytes",
        "label": "string",
        "numberOfBytes": "32"
      },
      "t_struct(Counter)3017_storage": {
        "encoding": "inplace",
        "label": "struct Counters.Counter",
        "members": [
          {
            "astId": 3016,
            "contract": "contracts/Escrow.sol:Escrow",
            "label": "_value",
            "offset": 0,
            "slot": "0",
            "type": "t_uint256"
          }
        ],
        "numberOfBytes": "32"
      },
      "t_struct(EscrowDetails)5473_storage": {
        "encoding": "inplace",
        "label": "struct Escrow.EscrowDetails",
        "members": [
          {
            "astId": 5450,
            "contract": "contracts/Escrow.sol:Escrow",
            "label": "escrowId",
            "offset": 0,
            "slot": "0",
            "type": "t_uint256"
          },
          {
            "astId": 5452,
            "contract": "contracts/Escrow.sol:Escrow",
            "label": "creator",
            "offset": 0,
            "slot": "1",
            "type": "t_address"
          },
          {
            "astId": 5454,
            "contract": "contracts/Escrow.sol:Escrow",
            "label": "isClosed",
            "offset": 20,
            "slot": "1",
            "type": "t_bool"
          },
          {
            "astId": 5456,
            "contract": "contracts/Escrow.sol:Escrow",
            "label": "isLocked",
            "offset": 21,
            "slot": "1",
            "type": "t_bool"
          },
          {
            "astId": 5458,
            "contract": "contracts/Escrow.sol:Escrow",
            "label": "dataJson",
            "offset": 0,
            "slot": "2",
            "type": "t_string_storage"
          },
          {
            "astId": 5462,
            "contract": "contracts/Escrow.sol:Escrow",
            "label": "deposits",
            "offset": 0,
            "slot": "3",
            "type": "t_array(t_struct(TokenDeposit)5433_storage)dyn_storage"
          },
          {
            "astId": 5466,
            "contract": "contracts/Escrow.sol:Escrow",
            "label": "releases",
            "offset": 0,
            "slot": "4",
            "type": "t_array(t_struct(ReleaseRecord)5448_storage)dyn_storage"
          },
          {
            "astId": 5468,
            "contract": "contracts/Escrow.sol:Escrow",
            "label": "totalTokensDeposited",
            "offset": 0,
            "slot": "5",
            "type": "t_uint256"
          },
          {
            "astId": 5470,
            "contract": "contracts/Escrow.sol:Escrow",
            "label": "totalTokensReleased",
            "offset": 0,
            "slot": "6",
            "type": "t_uint256"
          },
          {
            "astId": 5472,
            "contract": "contracts/Escrow.sol:Escrow",
            "label": "releaseCount",
            "offset": 0,
            "slot": "7",
            "type": "t_uint256"
          }
        ],
        "numberOfBytes": "256"
      },
      "t_struct(ReleaseRecord)5448_storage": {
        "encoding": "inplace",
        "label": "struct Escrow.ReleaseRecord",
        "members": [
          {
            "astId": 5435,
            "contract": "contracts/Escrow.sol:Escrow",
            "label": "releaseId",
            "offset": 0,
            "slot": "0",
            "type": "t_string_storage"
          },
          {
            "astId": 5438,
            "contract": "contracts/Escrow.sol:Escrow",
            "label": "recipients",
            "offset": 0,
            "slot": "1",
            "type": "t_array(t_address)dyn_storage"
          },
          {
            "astId": 5441,
            "contract": "contracts/Escrow.sol:Escrow",
            "label": "amounts",
            "offset": 0,
            "slot": "2",
            "type": "t_array(t_uint256)dyn_storage"
          },
          {
            "astId": 5443,
            "contract": "contracts/Escrow.sol:Escrow",
            "label": "isFullRelease",
            "offset": 0,
            "slot": "3",
            "type": "t_bool"
          },
          {
            "astId": 5445,
            "contract": "contracts/Escrow.sol:Escrow",
            "label": "dataJson",
            "offset": 0,
            "slot": "4",
            "type": "t_string_storage"
          },
          {
            "astId": 5447,
            "contract": "contracts/Escrow.sol:Escrow",
            "label": "timestamp",
            "offset": 0,
            "slot": "5",
            "type": "t_uint256"
          }
        ],
        "numberOfBytes": "192"
      },
      "t_struct(TokenDeposit)5433_storage": {
        "encoding": "inplace",
        "label": "struct Escrow.TokenDeposit",
        "members": [
          {
            "astId": 5426,
            "contract": "contracts/Escrow.sol:Escrow",
            "label": "depositor",
            "offset": 0,
            "slot": "0",
            "type": "t_address"
          },
          {
            "astId": 5428,
            "contract": "contracts/Escrow.sol:Escrow",
            "label": "tokenAddress",
            "offset": 0,
            "slot": "1",
            "type": "t_address"
          },
          {
            "astId": 5430,
            "contract": "contracts/Escrow.sol:Escrow",
            "label": "amount",
            "offset": 0,
            "slot": "2",
            "type": "t_uint256"
          },
          {
            "astId": 5432,
            "contract": "contracts/Escrow.sol:Escrow",
            "label": "timestamp",
            "offset": 0,
            "slot": "3",
            "type": "t_uint256"
          }
        ],
        "numberOfBytes": "128"
      },
      "t_uint256": {
        "encoding": "inplace",
        "label": "uint256",
        "numberOfBytes": "32"
      }
    }
  }
}