{
  "address": "0xA840BBDdeE08777C50bf5A574B659688A6C11419",
  "abi": [
    {
      "inputs": [
        {
          "internalType": "address",
          "name": "_paymentOracle",
          "type": "address"
        }
      ],
      "stateMutability": "nonpayable",
      "type": "constructor"
    },
    {
      "anonymous": false,
      "inputs": [
        {
          "indexed": true,
          "internalType": "address",
          "name": "token",
          "type": "address"
        },
        {
          "indexed": true,
          "internalType": "address",
          "name": "owner",
          "type": "address"
        },
        {
          "indexed": false,
          "internalType": "uint256",
          "name": "amount",
          "type": "uint256"
        },
        {
          "indexed": false,
          "internalType": "address[]",
          "name": "acceptedTokens",
          "type": "address[]"
        },
        {
          "indexed": false,
          "internalType": "uint256[]",
          "name": "prices",
          "type": "uint256[]"
        },
        {
          "indexed": false,
          "internalType": "bool",
          "name": "fiatEnabled",
          "type": "bool"
        },
        {
          "indexed": false,
          "internalType": "uint256",
          "name": "fiatPrice",
          "type": "uint256"
        }
      ],
      "name": "DepositUpdated",
      "type": "event"
    },
    {
      "anonymous": false,
      "inputs": [
        {
          "indexed": true,
          "internalType": "address",
          "name": "token",
          "type": "address"
        },
        {
          "indexed": true,
          "internalType": "address",
          "name": "recipient",
          "type": "address"
        },
        {
          "indexed": false,
          "internalType": "uint256",
          "name": "amount",
          "type": "uint256"
        },
        {
          "indexed": false,
          "internalType": "bool",
          "name": "isNFT",
          "type": "bool"
        }
      ],
      "name": "EmergencyRecovery",
      "type": "event"
    },
    {
      "anonymous": false,
      "inputs": [
        {
          "indexed": false,
          "internalType": "uint256",
          "name": "newFee",
          "type": "uint256"
        }
      ],
      "name": "FeeUpdated",
      "type": "event"
    },
    {
      "anonymous": false,
      "inputs": [
        {
          "indexed": true,
          "internalType": "address",
          "name": "depositToken",
          "type": "address"
        },
        {
          "indexed": false,
          "internalType": "address[]",
          "name": "paymentTokens",
          "type": "address[]"
        },
        {
          "indexed": false,
          "internalType": "uint256[]",
          "name": "amounts",
          "type": "uint256[]"
        }
      ],
      "name": "FeesCollected",
      "type": "event"
    },
    {
      "anonymous": false,
      "inputs": [
        {
          "indexed": true,
          "internalType": "address",
          "name": "buyer",
          "type": "address"
        },
        {
          "indexed": true,
          "internalType": "address",
          "name": "depositToken",
          "type": "address"
        },
        {
          "indexed": false,
          "internalType": "uint256",
          "name": "amountReceived",
          "type": "uint256"
        }
      ],
      "name": "FiatPurchase",
      "type": "event"
    },
    {
      "anonymous": false,
      "inputs": [
        {
          "indexed": true,
          "internalType": "address",
          "name": "previousOwner",
          "type": "address"
        },
        {
          "indexed": true,
          "internalType": "address",
          "name": "newOwner",
          "type": "address"
        }
      ],
      "name": "OwnershipTransferred",
      "type": "event"
    },
    {
      "anonymous": false,
      "inputs": [
        {
          "indexed": false,
          "internalType": "address",
          "name": "account",
          "type": "address"
        }
      ],
      "name": "Paused",
      "type": "event"
    },
    {
      "anonymous": false,
      "inputs": [
        {
          "indexed": true,
          "internalType": "address",
          "name": "newOracle",
          "type": "address"
        }
      ],
      "name": "PaymentOracleUpdated",
      "type": "event"
    },
    {
      "anonymous": false,
      "inputs": [
        {
          "indexed": true,
          "internalType": "address",
          "name": "purchaser",
          "type": "address"
        },
        {
          "indexed": true,
          "internalType": "address",
          "name": "recipient",
          "type": "address"
        },
        {
          "indexed": true,
          "internalType": "address",
          "name": "depositToken",
          "type": "address"
        },
        {
          "indexed": false,
          "internalType": "address",
          "name": "purchaseToken",
          "type": "address"
        },
        {
          "indexed": false,
          "internalType": "uint256",
          "name": "amount",
          "type": "uint256"
        },
        {
          "indexed": false,
          "internalType": "uint256",
          "name": "totalPrice",
          "type": "uint256"
        }
      ],
      "name": "TokenPurchased",
      "type": "event"
    },
    {
      "anonymous": false,
      "inputs": [
        {
          "indexed": false,
          "internalType": "address",
          "name": "account",
          "type": "address"
        }
      ],
      "name": "Unpaused",
      "type": "event"
    },
    {
      "inputs": [],
      "name": "FIAT_TOKEN_ADDRESS",
      "outputs": [
        {
          "internalType": "address",
          "name": "",
          "type": "address"
        }
      ],
      "stateMutability": "view",
      "type": "function"
    },
    {
      "inputs": [],
      "name": "MAX_FEE_PERCENT",
      "outputs": [
        {
          "internalType": "uint256",
          "name": "",
          "type": "uint256"
        }
      ],
      "stateMutability": "view",
      "type": "function"
    },
    {
      "inputs": [
        {
          "internalType": "address",
          "name": "depositToken",
          "type": "address"
        },
        {
          "internalType": "address",
          "name": "purchaseToken",
          "type": "address"
        },
        {
          "internalType": "address",
          "name": "recipient",
          "type": "address"
        },
        {
          "internalType": "uint256",
          "name": "amount",
          "type": "uint256"
        },
        {
          "internalType": "uint256",
          "name": "tokenId",
          "type": "uint256"
        }
      ],
      "name": "buyToken",
      "outputs": [],
      "stateMutability": "nonpayable",
      "type": "function"
    },
    {
      "inputs": [
        {
          "internalType": "address",
          "name": "depositToken",
          "type": "address"
        }
      ],
      "name": "collectFees",
      "outputs": [],
      "stateMutability": "nonpayable",
      "type": "function"
    },
    {
      "inputs": [
        {
          "internalType": "address",
          "name": "",
          "type": "address"
        }
      ],
      "name": "depositTokenInfo",
      "outputs": [
        {
          "internalType": "address",
          "name": "depositTokenOwner",
          "type": "address"
        },
        {
          "internalType": "uint256",
          "name": "depositTokenBalance",
          "type": "uint256"
        },
        {
          "internalType": "bool",
          "name": "canBePurchasedInFiat",
          "type": "bool"
        },
        {
          "internalType": "uint256",
          "name": "priceInFiat",
          "type": "uint256"
        },
        {
          "internalType": "bool",
          "name": "isNFT",
          "type": "bool"
        },
        {
          "internalType": "uint256",
          "name": "lastUpdateTime",
          "type": "uint256"
        }
      ],
      "stateMutability": "view",
      "type": "function"
    },
    {
      "inputs": [
        {
          "internalType": "address",
          "name": "token",
          "type": "address"
        },
        {
          "internalType": "uint256",
          "name": "tokenId",
          "type": "uint256"
        },
        {
          "internalType": "uint256",
          "name": "amount",
          "type": "uint256"
        },
        {
          "internalType": "address",
          "name": "recipient",
          "type": "address"
        }
      ],
      "name": "emergencyRecover",
      "outputs": [],
      "stateMutability": "nonpayable",
      "type": "function"
    },
    {
      "inputs": [],
      "name": "feePercent",
      "outputs": [
        {
          "internalType": "uint256",
          "name": "",
          "type": "uint256"
        }
      ],
      "stateMutability": "view",
      "type": "function"
    },
    {
      "inputs": [
        {
          "internalType": "address",
          "name": "depositToken",
          "type": "address"
        },
        {
          "internalType": "address",
          "name": "acceptedToken",
          "type": "address"
        }
      ],
      "name": "getAcceptedTokenPrice",
      "outputs": [
        {
          "internalType": "uint256",
          "name": "",
          "type": "uint256"
        }
      ],
      "stateMutability": "view",
      "type": "function"
    },
    {
      "inputs": [
        {
          "internalType": "address",
          "name": "depositToken",
          "type": "address"
        }
      ],
      "name": "getAcceptedTokens",
      "outputs": [
        {
          "internalType": "address[]",
          "name": "",
          "type": "address[]"
        }
      ],
      "stateMutability": "view",
      "type": "function"
    },
    {
      "inputs": [
        {
          "internalType": "address",
          "name": "depositToken",
          "type": "address"
        }
      ],
      "name": "getAvailableNFTTokenIds",
      "outputs": [
        {
          "internalType": "uint256[]",
          "name": "",
          "type": "uint256[]"
        }
      ],
      "stateMutability": "view",
      "type": "function"
    },
    {
      "inputs": [
        {
          "internalType": "address",
          "name": "depositToken",
          "type": "address"
        },
        {
          "internalType": "address",
          "name": "paymentToken",
          "type": "address"
        }
      ],
      "name": "getTokenBalance",
      "outputs": [
        {
          "internalType": "uint256",
          "name": "",
          "type": "uint256"
        }
      ],
      "stateMutability": "view",
      "type": "function"
    },
    {
      "inputs": [
        {
          "internalType": "address",
          "name": "depositToken",
          "type": "address"
        },
        {
          "internalType": "address",
          "name": "paymentToken",
          "type": "address"
        }
      ],
      "name": "getTokenFees",
      "outputs": [
        {
          "internalType": "uint256",
          "name": "",
          "type": "uint256"
        }
      ],
      "stateMutability": "view",
      "type": "function"
    },
    {
      "inputs": [
        {
          "internalType": "address",
          "name": "",
          "type": "address"
        }
      ],
      "name": "isDepositToken",
      "outputs": [
        {
          "internalType": "bool",
          "name": "",
          "type": "bool"
        }
      ],
      "stateMutability": "view",
      "type": "function"
    },
    {
      "inputs": [
        {
          "internalType": "address",
          "name": "token",
          "type": "address"
        },
        {
          "internalType": "uint256",
          "name": "amount",
          "type": "uint256"
        },
        {
          "internalType": "address[]",
          "name": "acceptedTokens",
          "type": "address[]"
        },
        {
          "internalType": "uint256[]",
          "name": "prices",
          "type": "uint256[]"
        },
        {
          "internalType": "bool",
          "name": "enableFiat",
          "type": "bool"
        },
        {
          "internalType": "uint256",
          "name": "fiatPrice",
          "type": "uint256"
        },
        {
          "internalType": "bool",
          "name": "isNFT",
          "type": "bool"
        },
        {
          "internalType": "uint256",
          "name": "tokenId",
          "type": "uint256"
        }
      ],
      "name": "manageDeposit",
      "outputs": [],
      "stateMutability": "nonpayable",
      "type": "function"
    },
    {
      "inputs": [],
      "name": "owner",
      "outputs": [
        {
          "internalType": "address",
          "name": "",
          "type": "address"
        }
      ],
      "stateMutability": "view",
      "type": "function"
    },
    {
      "inputs": [],
      "name": "paused",
      "outputs": [
        {
          "internalType": "bool",
          "name": "",
          "type": "bool"
        }
      ],
      "stateMutability": "view",
      "type": "function"
    },
    {
      "inputs": [],
      "name": "paymentOracle",
      "outputs": [
        {
          "internalType": "address",
          "name": "",
          "type": "address"
        }
      ],
      "stateMutability": "view",
      "type": "function"
    },
    {
      "inputs": [],
      "name": "renounceOwnership",
      "outputs": [],
      "stateMutability": "nonpayable",
      "type": "function"
    },
    {
      "inputs": [
        {
          "internalType": "uint256",
          "name": "newFeePercent",
          "type": "uint256"
        }
      ],
      "name": "setFeePercent",
      "outputs": [],
      "stateMutability": "nonpayable",
      "type": "function"
    },
    {
      "inputs": [
        {
          "internalType": "address",
          "name": "_paymentOracle",
          "type": "address"
        }
      ],
      "name": "setPaymentOracle",
      "outputs": [],
      "stateMutability": "nonpayable",
      "type": "function"
    },
    {
      "inputs": [
        {
          "internalType": "address",
          "name": "",
          "type": "address"
        },
        {
          "internalType": "address",
          "name": "",
          "type": "address"
        }
      ],
      "name": "tokenFees",
      "outputs": [
        {
          "internalType": "uint256",
          "name": "",
          "type": "uint256"
        }
      ],
      "stateMutability": "view",
      "type": "function"
    },
    {
      "inputs": [
        {
          "internalType": "uint256",
          "name": "",
          "type": "uint256"
        }
      ],
      "name": "trackedTokens",
      "outputs": [
        {
          "internalType": "address",
          "name": "",
          "type": "address"
        }
      ],
      "stateMutability": "view",
      "type": "function"
    },
    {
      "inputs": [
        {
          "internalType": "address",
          "name": "newOwner",
          "type": "address"
        }
      ],
      "name": "transferOwnership",
      "outputs": [],
      "stateMutability": "nonpayable",
      "type": "function"
    }
  ],
  "transactionHash": "0xbe76558677e6388e6510f8abaff5a108a9e125bef6a9f125b575389e30464d2a",
  "args": [
    "0x1DEA6076bC003a957B1E4774A93a8D9aB0CBC1C1"
  ],
  "numDeployments": 2,
  "solcInputHash": "98ea4e8963e7c63e102b7e2ef28ba706",
  "bytecode": "0x6080604052600380553480156200001557600080fd5b506040516200221a3803806200221a833981016040819052620000389162000122565b6200004333620000d2565b600180556002805460ff191690556001600160a01b038116620000ac5760405162461bcd60e51b815260206004820152601e60248201527f496e76616c6964207061796d656e74206f7261636c6520616464726573730000604482015260640160405180910390fd5b600680546001600160a01b0319166001600160a01b039290921691909117905562000154565b600080546001600160a01b038381166001600160a01b0319831681178455604051919092169283917f8be0079c531659141344cd1fd0a4f28419497f9722a3daafe3b4186f6b6457e09190a35050565b6000602082840312156200013557600080fd5b81516001600160a01b03811681146200014d57600080fd5b9392505050565b6120b680620001646000396000f3fe608060405234801561001057600080fd5b506004361061012d5760003560e01c80638305368a116100b35780638305368a146102b35780638da5cb5b146102c6578063a480ca79146102ce578063b89e45b3146102e1578063bfa141eb14610304578063c489744b14610317578063db24f31a14610354578063e022928614610367578063e79bdfe11461037a578063f2fde38b1461039a578063f6159d81146103ad578063ff8385d3146103c057600080fd5b80630d59e3531461013257806321e3d9c2146101c857806334d9f76a146101e95780635400d3a3146101fe5780635c975abb1461021e5780635ee3d3311461023557806361e6a8941461027257806367d8174014610287578063715018a61461028f5780637ce3489b146102975780637fd6f15c146102aa575b600080fd5b610186610140366004611b44565b6007602081905260009182526040909120805460048201546005830154600684015494840154600a909401546001600160a01b0390931694919360ff9182169391169086565b604080516001600160a01b0390971687526020870195909552921515938501939093526060840152901515608083015260a082015260c0015b60405180910390f35b6101db6101d6366004611b66565b6103eb565b6040519081526020016101bf565b6101f1600181565b6040516101bf9190611b99565b61021161020c366004611b44565b610418565b6040516101bf9190611bf1565b60025460ff165b60405190151581526020016101bf565b6101db610243366004611b66565b6001600160a01b0391821660009081526007602090815260408083209390941682526002909201909152205490565b610285610280366004611b44565b610491565b005b6101db601481565b61028561053e565b6102856102a5366004611c04565b610552565b6101db60035481565b6101f16102c1366004611c04565b6105d5565b6101f16105ff565b6102856102dc366004611b44565b61060e565b6102256102ef366004611b44565b60086020526000908152604090205460ff1681565b610285610312366004611c77565b61089f565b6101db610325366004611b66565b6001600160a01b0391821660009081526007602090815260408083209390941682526003909201909152205490565b610285610362366004611d3b565b610c9e565b6006546101f1906001600160a01b031681565b61038d610388366004611b44565b610f00565b6040516101bf9190611db1565b6102856103a8366004611b44565b610f6e565b6102856103bb366004611dc4565b610fe7565b6101db6103ce366004611b66565b600460209081526000928352604080842090915290825290205481565b6001600160a01b038083166000908152600460209081526040808320938516835292905220545b92915050565b6001600160a01b03811660009081526007602090815260409182902060010180548351818402810184019094528084526060939283018282801561048557602002820191906000526020600020905b81546001600160a01b03168152600190910190602001808311610467575b50505050509050919050565b6104996115c7565b6001600160a01b0381166104f45760405162461bcd60e51b815260206004820152601e60248201527f496e76616c6964207061796d656e74206f7261636c652061646472657373000060448201526064015b60405180910390fd5b600680546001600160a01b0319166001600160a01b0383169081179091556040517f5d344b09eb4b84d36976174a42aa1c4765b33dc82951e3a5083f479e2b5115ef90600090a250565b6105466115c7565b6105506000611626565b565b61055a6115c7565b601481111561059a5760405162461bcd60e51b815260206004820152600c60248201526b08ccaca40e8dede40d0d2ced60a31b60448201526064016104eb565b60038190556040518181527f8c4d35e54a3f2ef1134138fd8ea3daee6a3c89e10d2665996babdf70261e2c769060200160405180910390a150565b600581815481106105e557600080fd5b6000918252602090912001546001600160a01b0316905081565b6000546001600160a01b031690565b6106166115c7565b6001600160a01b038116600090815260076020908152604080832060018101805483518186028101860190945280845291949390919083018282801561068557602002820191906000526020600020905b81546001600160a01b03168152600190910190602001808311610667575b505050505090506000815167ffffffffffffffff8111156106a8576106a8611e19565b6040519080825280602002602001820160405280156106d1578160200160208202803683370190505b5090506000805b8351811015610812576001600160a01b03861660009081526004602052604081208551829087908590811061070f5761070f611e2f565b60200260200101516001600160a01b03166001600160a01b0316815260200190815260200160002054905060008111156107ff576001600160a01b03871660009081526004602052604081208651829088908690811061077157610771611e2f565b60200260200101516001600160a01b03166001600160a01b03168152602001908152602001600020819055506107db6107a86105ff565b828785815181106107bb576107bb611e2f565b60200260200101516001600160a01b03166116769092919063ffffffff16565b808483815181106107ee576107ee611e2f565b602002602001018181525050600192505b508061080a81611e5b565b9150506106d8565b50806108555760405162461bcd60e51b8152602060048201526012602482015271139bc81999595cc81d1bc818dbdb1b1958dd60721b60448201526064016104eb565b846001600160a01b03167f88e13174fdd94c48cee4cd4efdad1383223c9c1f4cc1d94a51280d66ee1cf2758484604051610890929190611e74565b60405180910390a25050505050565b6108a76116de565b6108af611737565b6001600160a01b038a166108fd5760405162461bcd60e51b8152602060048201526015602482015274496e76616c696420746f6b656e206164647265737360581b60448201526064016104eb565b8685146109455760405162461bcd60e51b8152602060048201526016602482015275082e4e4c2f2e640d8cadccee8d040dad2e6dac2e8c6d60531b60448201526064016104eb565b866109875760405162461bcd60e51b81526020600482015260126024820152714e6f20616363657074656420746f6b656e7360701b60448201526064016104eb565b6001600160a01b038a16600090815260076020908152604080832060089092529091205460ff16806109da5781546001600160a01b0319163317825560078201805485151560ff19909116179055610a1f565b81546001600160a01b03163314610a1f5760405162461bcd60e51b81526020600482015260096024820152682737ba1037bbb732b960b91b60448201526064016104eb565b8a15610b55578315610b265760008311610a725760405162461bcd60e51b8152602060048201526014602482015273125b9d985b1a5908139195081d1bdad95b88125160621b60448201526064016104eb565b6040516323b872dd60e01b81526001600160a01b038d16906323b872dd90610aa290339030908890600401611ea2565b600060405180830381600087803b158015610abc57600080fd5b505af1158015610ad0573d6000803e3d6000fd5b505050600084815260088401602052604090205460ff169050610b2157600083815260088301602090815260408220805460ff19166001908117909155600985018054918201815583529120018390555b610b55565b610b3b6001600160a01b038d1633308e61177d565b8a826004016000828254610b4f9190611ec6565b90915550505b610b63600183018b8b611ab0565b5060005b89811015610be157888882818110610b8157610b81611e2f565b905060200201358360020160008d8d85818110610ba057610ba0611e2f565b9050602002016020810190610bb59190611b44565b6001600160a01b0316815260208101919091526040016000205580610bd981611e5b565b915050610b67565b5060058201805460ff19168715151790556006820185905542600a83015580610c30576001600160a01b038c166000908152600860205260409020805460ff19166001179055610c308c61179e565b336001600160a01b03168c6001600160a01b03167f9498cef0f3c9c9263010939b1076dc651d5b7ea417e8bdcd90bfd545821b27c38d8d8d8d8d8d8d604051610c7f9796959493929190611ed9565b60405180910390a35050610c9260018055565b50505050505050505050565b610ca66115c7565b6001600160a01b038116610cf05760405162461bcd60e51b8152602060048201526011602482015270125b9d985b1a59081c9958da5c1a595b9d607a1b60448201526064016104eb565b6040516301ffc9a760e01b81526380ac58cd60e01b60048201526001600160a01b038516906301ffc9a790602401602060405180830381865afa158015610d3b573d6000803e3d6000fd5b505050506040513d601f19601f82011682018060405250810190610d5f9190611f75565b15610e13576040516323b872dd60e01b81526001600160a01b038516906323b872dd90610d9490309085908890600401611ea2565b600060405180830381600087803b158015610dae57600080fd5b505af1158015610dc2573d6000803e3d6000fd5b505060408051868152600160208201526001600160a01b038086169450881692507f410d85bd536f0572efdeba0970fdf1c45672e113f9c4012059dcb2bb972809a2910160405180910390a3610efa565b6040516370a0823160e01b81526000906001600160a01b038616906370a0823190610e42903090600401611b99565b602060405180830381865afa158015610e5f573d6000803e3d6000fd5b505050506040513d601f19601f82011682018060405250810190610e839190611f92565b905060006000198414610e965783610e98565b815b9050610eae6001600160a01b0387168483611676565b60408051828152600060208201526001600160a01b0380861692908916917f410d85bd536f0572efdeba0970fdf1c45672e113f9c4012059dcb2bb972809a2910160405180910390a350505b50505050565b6001600160a01b03811660009081526007602090815260409182902060090180548351818402810184019094528084526060939283018282801561048557602002820191906000526020600020905b815481526020019060010190808311610f4f5750505050509050919050565b610f766115c7565b6001600160a01b038116610fdb5760405162461bcd60e51b815260206004820152602660248201527f4f776e61626c653a206e6577206f776e657220697320746865207a65726f206160448201526564647265737360d01b60648201526084016104eb565b610fe481611626565b50565b610fef6116de565b610ff7611737565b6001600160a01b0383161561100c578261100e565b335b6001600160a01b03861660009081526007602090815260408083206008909252909120549194509060ff1661107a5760405162461bcd60e51b8152602060048201526012602482015271546f6b656e206e6f7420666f722073616c6560701b60448201526064016104eb565b600781015460ff161561113557826001146110d75760405162461bcd60e51b815260206004820152601d60248201527f4e465420707572636861736520616d6f756e74206d757374206265203100000060448201526064016104eb565b600082815260088201602052604090205460ff166111305760405162461bcd60e51b8152602060048201526016602482015275546f6b656e204944206e6f7420617661696c61626c6560501b60448201526064016104eb565b611189565b82816004015410156111895760405162461bcd60e51b815260206004820152601c60248201527f496e73756666696369656e74206465706f7369742062616c616e63650000000060448201526064016104eb565b6000196001600160a01b03861601611242576006546001600160a01b031633146111f55760405162461bcd60e51b815260206004820152601c60248201527f4f6e6c79207061796d656e74206f7261636c6520666f7220666961740000000060448201526064016104eb565b600581015460ff1661123d5760405162461bcd60e51b8152602060048201526011602482015270119a585d081b9bdd081858d8d95c1d1959607a1b60448201526064016104eb565b61129e565b6001600160a01b038516600090815260028201602052604090205461129e5760405162461bcd60e51b8152602060048201526012602482015271151bdad95b881b9bdd081858d8d95c1d195960721b60448201526064016104eb565b60006001600160a01b0386166001146112d1576001600160a01b03861660009081526002830160205260409020546112d7565b81600601545b905060006112e58583611fab565b905060006064600354836112f99190611fab565b6113039190611fc2565b905060006113118284611fe4565b90506001600160a01b0389166001146113b5576113396001600160a01b038a1633308661177d565b6001600160a01b03808b166000908152600460209081526040808320938d1683529290529081208054849290611370908490611ec6565b909155505084546001600160a01b0316156113b5576001600160a01b0389166000908152600386016020526040812080548392906113af908490611ec6565b90915550505b600785015460ff1615611504576040516323b872dd60e01b81526001600160a01b038b16906323b872dd906113f29030908c908b90600401611ea2565b600060405180830381600087803b15801561140c57600080fd5b505af1158015611420573d6000803e3d6000fd5b50505060008781526008870160205260408120805460ff1916905590505b60098601548110156114fe578686600901828154811061146057611460611e2f565b9060005260206000200154036114ec5760098601805461148290600190611fe4565b8154811061149257611492611e2f565b90600052602060002001548660090182815481106114b2576114b2611e2f565b600091825260209091200155600986018054806114d1576114d1611ff7565b600190038181906000526020600020016000905590556114fe565b806114f681611e5b565b91505061143e565b5061155e565b6115186001600160a01b038b168989611676565b8685600401600082825461152c9190611fe4565b9091555050600485015460000361155e576001600160a01b038a166000908152600860205260409020805460ff191690555b604080516001600160a01b038b81168252602082018a9052918101859052818c16918a169033907f58e056c2f940227f16152d84f6151682ac4c644d91b9b5db7a8c303e519f81d79060600160405180910390a450505050506115c060018055565b5050505050565b336115d06105ff565b6001600160a01b0316146105505760405162461bcd60e51b815260206004820181905260248201527f4f776e61626c653a2063616c6c6572206973206e6f7420746865206f776e657260448201526064016104eb565b600080546001600160a01b038381166001600160a01b0319831681178455604051919092169283917f8be0079c531659141344cd1fd0a4f28419497f9722a3daafe3b4186f6b6457e09190a35050565b6040516001600160a01b0383166024820152604481018290526116d990849063a9059cbb60e01b906064015b60408051601f198184030181529190526020810180516001600160e01b03166001600160e01b03199093169290921790915261184b565b505050565b6002600154036117305760405162461bcd60e51b815260206004820152601f60248201527f5265656e7472616e637947756172643a207265656e7472616e742063616c6c0060448201526064016104eb565b6002600155565b60025460ff16156105505760405162461bcd60e51b815260206004820152601060248201526f14185d5cd8589b194e881c185d5cd95960821b60448201526064016104eb565b610efa846323b872dd60e01b8585856040516024016116a293929190611ea2565b60005b6005548110156117f857816001600160a01b0316600582815481106117c8576117c8611e2f565b6000918252602090912001546001600160a01b0316036117e6575050565b806117f081611e5b565b9150506117a1565b50600580546001810182556000919091527f036b6384b5eca791c62761152d0c79bb0604c104a5fb6f4eb0703f3154bb3db00180546001600160a01b0319166001600160a01b0392909216919091179055565b60006118a0826040518060400160405280602081526020017f5361666545524332303a206c6f772d6c6576656c2063616c6c206661696c6564815250856001600160a01b03166119209092919063ffffffff16565b90508051600014806118c15750808060200190518101906118c19190611f75565b6116d95760405162461bcd60e51b815260206004820152602a60248201527f5361666545524332303a204552433230206f7065726174696f6e20646964206e6044820152691bdd081cdd58d8d9595960b21b60648201526084016104eb565b606061192f8484600085611937565b949350505050565b6060824710156119985760405162461bcd60e51b815260206004820152602660248201527f416464726573733a20696e73756666696369656e742062616c616e636520666f6044820152651c8818d85b1b60d21b60648201526084016104eb565b600080866001600160a01b031685876040516119b49190612031565b60006040518083038185875af1925050503d80600081146119f1576040519150601f19603f3d011682016040523d82523d6000602084013e6119f6565b606091505b5091509150611a0787838387611a12565b979650505050505050565b60608315611a81578251600003611a7a576001600160a01b0385163b611a7a5760405162461bcd60e51b815260206004820152601d60248201527f416464726573733a2063616c6c20746f206e6f6e2d636f6e747261637400000060448201526064016104eb565b508161192f565b61192f8383815115611a965781518083602001fd5b8060405162461bcd60e51b81526004016104eb919061204d565b828054828255906000526020600020908101928215611b03579160200282015b82811115611b035781546001600160a01b0319166001600160a01b03843516178255602090920191600190910190611ad0565b50611b0f929150611b13565b5090565b5b80821115611b0f5760008155600101611b14565b80356001600160a01b0381168114611b3f57600080fd5b919050565b600060208284031215611b5657600080fd5b611b5f82611b28565b9392505050565b60008060408385031215611b7957600080fd5b611b8283611b28565b9150611b9060208401611b28565b90509250929050565b6001600160a01b0391909116815260200190565b600081518084526020808501945080840160005b83811015611be65781516001600160a01b031687529582019590820190600101611bc1565b509495945050505050565b602081526000611b5f6020830184611bad565b600060208284031215611c1657600080fd5b5035919050565b60008083601f840112611c2f57600080fd5b50813567ffffffffffffffff811115611c4757600080fd5b6020830191508360208260051b8501011115611c6257600080fd5b9250929050565b8015158114610fe457600080fd5b6000806000806000806000806000806101008b8d031215611c9757600080fd5b611ca08b611b28565b995060208b0135985060408b013567ffffffffffffffff80821115611cc457600080fd5b611cd08e838f01611c1d565b909a50985060608d0135915080821115611ce957600080fd5b50611cf68d828e01611c1d565b90975095505060808b0135611d0a81611c69565b935060a08b0135925060c08b0135611d2181611c69565b8092505060e08b013590509295989b9194979a5092959850565b60008060008060808587031215611d5157600080fd5b611d5a85611b28565b93506020850135925060408501359150611d7660608601611b28565b905092959194509250565b600081518084526020808501945080840160005b83811015611be657815187529582019590820190600101611d95565b602081526000611b5f6020830184611d81565b600080600080600060a08688031215611ddc57600080fd5b611de586611b28565b9450611df360208701611b28565b9350611e0160408701611b28565b94979396509394606081013594506080013592915050565b634e487b7160e01b600052604160045260246000fd5b634e487b7160e01b600052603260045260246000fd5b634e487b7160e01b600052601160045260246000fd5b600060018201611e6d57611e6d611e45565b5060010190565b604081526000611e876040830185611bad565b8281036020840152611e998185611d81565b95945050505050565b6001600160a01b039384168152919092166020820152604081019190915260600190565b8082018082111561041257610412611e45565b87815260a06020808301829052908201879052600090889060c08401835b8a811015611f23576001600160a01b03611f1085611b28565b1682529282019290820190600101611ef7565b5084810360408601528781526001600160fb1b03881115611f4357600080fd5b8760051b9250828983830137909101019050611f63606083018515159052565b82608083015298975050505050505050565b600060208284031215611f8757600080fd5b8151611b5f81611c69565b600060208284031215611fa457600080fd5b5051919050565b808202811582820484141761041257610412611e45565b600082611fdf57634e487b7160e01b600052601260045260246000fd5b500490565b8181038181111561041257610412611e45565b634e487b7160e01b600052603160045260246000fd5b60005b83811015612028578181015183820152602001612010565b50506000910152565b6000825161204381846020870161200d565b9190910192915050565b602081526000825180602084015261206c81604085016020870161200d565b601f01601f1916919091016040019291505056fea2646970667358221220afecf4b4c107d1f3e48dcf0ddc3322f063d0ffae8bb869cdfcf7225a98cf36bf64736f6c63430008130033",
  "devdoc": {
    "events": {
      "Paused(address)": {
        "details": "Emitted when the pause is triggered by `account`."
      },
      "Unpaused(address)": {
        "details": "Emitted when the pause is lifted by `account`."
      }
    },
    "kind": "dev",
    "methods": {
      "owner()": {
        "details": "Returns the address of the current owner."
      },
      "paused()": {
        "details": "Returns true if the contract is paused, and false otherwise."
      },
      "renounceOwnership()": {
        "details": "Leaves the contract without owner. It will not be possible to call `onlyOwner` functions. Can only be called by the current owner. NOTE: Renouncing ownership will leave the contract without an owner, thereby disabling any functionality that is only available to the owner."
      },
      "transferOwnership(address)": {
        "details": "Transfers ownership of the contract to a new account (`newOwner`). Can only be called by the current owner."
      }
    },
    "version": 1
  },
  "userdoc": {
    "kind": "user",
    "methods": {},
    "version": 1
  },
  "storageLayout": {
    "storage": [
      {
        "astId": 7,
        "contract": "contracts/TokenSale.sol:TokenSale",
        "label": "_owner",
        "offset": 0,
        "slot": "0",
        "type": "t_address"
      },
      {
        "astId": 231,
        "contract": "contracts/TokenSale.sol:TokenSale",
        "label": "_status",
        "offset": 0,
        "slot": "1",
        "type": "t_uint256"
      },
      {
        "astId": 130,
        "contract": "contracts/TokenSale.sol:TokenSale",
        "label": "_paused",
        "offset": 0,
        "slot": "2",
        "type": "t_bool"
      },
      {
        "astId": 1279,
        "contract": "contracts/TokenSale.sol:TokenSale",
        "label": "feePercent",
        "offset": 0,
        "slot": "3",
        "type": "t_uint256"
      },
      {
        "astId": 1285,
        "contract": "contracts/TokenSale.sol:TokenSale",
        "label": "tokenFees",
        "offset": 0,
        "slot": "4",
        "type": "t_mapping(t_address,t_mapping(t_address,t_uint256))"
      },
      {
        "astId": 1288,
        "contract": "contracts/TokenSale.sol:TokenSale",
        "label": "trackedTokens",
        "offset": 0,
        "slot": "5",
        "type": "t_array(t_address)dyn_storage"
      },
      {
        "astId": 1290,
        "contract": "contracts/TokenSale.sol:TokenSale",
        "label": "paymentOracle",
        "offset": 0,
        "slot": "6",
        "type": "t_address"
      },
      {
        "astId": 1332,
        "contract": "contracts/TokenSale.sol:TokenSale",
        "label": "depositTokenInfo",
        "offset": 0,
        "slot": "7",
        "type": "t_mapping(t_address,t_struct(TokenInfo)1327_storage)"
      },
      {
        "astId": 1336,
        "contract": "contracts/TokenSale.sol:TokenSale",
        "label": "isDepositToken",
        "offset": 0,
        "slot": "8",
        "type": "t_mapping(t_address,t_bool)"
      }
    ],
    "types": {
      "t_address": {
        "encoding": "inplace",
        "label": "address",
        "numberOfBytes": "20"
      },
      "t_array(t_address)dyn_storage": {
        "base": "t_address",
        "encoding": "dynamic_array",
        "label": "address[]",
        "numberOfBytes": "32"
      },
      "t_array(t_uint256)dyn_storage": {
        "base": "t_uint256",
        "encoding": "dynamic_array",
        "label": "uint256[]",
        "numberOfBytes": "32"
      },
      "t_bool": {
        "encoding": "inplace",
        "label": "bool",
        "numberOfBytes": "1"
      },
      "t_mapping(t_address,t_bool)": {
        "encoding": "mapping",
        "key": "t_address",
        "label": "mapping(address => bool)",
        "numberOfBytes": "32",
        "value": "t_bool"
      },
      "t_mapping(t_address,t_mapping(t_address,t_uint256))": {
        "encoding": "mapping",
        "key": "t_address",
        "label": "mapping(address => mapping(address => uint256))",
        "numberOfBytes": "32",
        "value": "t_mapping(t_address,t_uint256)"
      },
      "t_mapping(t_address,t_struct(TokenInfo)1327_storage)": {
        "encoding": "mapping",
        "key": "t_address",
        "label": "mapping(address => struct TokenSale.TokenInfo)",
        "numberOfBytes": "32",
        "value": "t_struct(TokenInfo)1327_storage"
      },
      "t_mapping(t_address,t_uint256)": {
        "encoding": "mapping",
        "key": "t_address",
        "label": "mapping(address => uint256)",
        "numberOfBytes": "32",
        "value": "t_uint256"
      },
      "t_mapping(t_uint256,t_bool)": {
        "encoding": "mapping",
        "key": "t_uint256",
        "label": "mapping(uint256 => bool)",
        "numberOfBytes": "32",
        "value": "t_bool"
      },
      "t_struct(TokenInfo)1327_storage": {
        "encoding": "inplace",
        "label": "struct TokenSale.TokenInfo",
        "members": [
          {
            "astId": 1298,
            "contract": "contracts/TokenSale.sol:TokenSale",
            "label": "depositTokenOwner",
            "offset": 0,
            "slot": "0",
            "type": "t_address"
          },
          {
            "astId": 1301,
            "contract": "contracts/TokenSale.sol:TokenSale",
            "label": "acceptedTokens",
            "offset": 0,
            "slot": "1",
            "type": "t_array(t_address)dyn_storage"
          },
          {
            "astId": 1305,
            "contract": "contracts/TokenSale.sol:TokenSale",
            "label": "acceptedTokenPrices",
            "offset": 0,
            "slot": "2",
            "type": "t_mapping(t_address,t_uint256)"
          },
          {
            "astId": 1309,
            "contract": "contracts/TokenSale.sol:TokenSale",
            "label": "tokenBalance",
            "offset": 0,
            "slot": "3",
            "type": "t_mapping(t_address,t_uint256)"
          },
          {
            "astId": 1311,
            "contract": "contracts/TokenSale.sol:TokenSale",
            "label": "depositTokenBalance",
            "offset": 0,
            "slot": "4",
            "type": "t_uint256"
          },
          {
            "astId": 1313,
            "contract": "contracts/TokenSale.sol:TokenSale",
            "label": "canBePurchasedInFiat",
            "offset": 0,
            "slot": "5",
            "type": "t_bool"
          },
          {
            "astId": 1315,
            "contract": "contracts/TokenSale.sol:TokenSale",
            "label": "priceInFiat",
            "offset": 0,
            "slot": "6",
            "type": "t_uint256"
          },
          {
            "astId": 1317,
            "contract": "contracts/TokenSale.sol:TokenSale",
            "label": "isNFT",
            "offset": 0,
            "slot": "7",
            "type": "t_bool"
          },
          {
            "astId": 1321,
            "contract": "contracts/TokenSale.sol:TokenSale",
            "label": "availableTokenIds",
            "offset": 0,
            "slot": "8",
            "type": "t_mapping(t_uint256,t_bool)"
          },
          {
            "astId": 1324,
            "contract": "contracts/TokenSale.sol:TokenSale",
            "label": "tokenIds",
            "offset": 0,
            "slot": "9",
            "type": "t_array(t_uint256)dyn_storage"
          },
          {
            "astId": 1326,
            "contract": "contracts/TokenSale.sol:TokenSale",
            "label": "lastUpdateTime",
            "offset": 0,
            "slot": "10",
            "type": "t_uint256"
          }
        ],
        "numberOfBytes": "352"
      },
      "t_uint256": {
        "encoding": "inplace",
        "label": "uint256",
        "numberOfBytes": "32"
      }
    }
  }
}