{
  "address": "0xb91B8cf43E4a0e28f0ba31a6B5e1Ff5D458D608E",
  "abi": [
    {
      "inputs": [
        {
          "internalType": "address",
          "name": "_paymentOracle",
          "type": "address"
        }
      ],
      "stateMutability": "nonpayable",
      "type": "constructor"
    },
    {
      "anonymous": false,
      "inputs": [
        {
          "indexed": true,
          "internalType": "string",
          "name": "updateType",
          "type": "string"
        },
        {
          "indexed": false,
          "internalType": "uint256",
          "name": "value",
          "type": "uint256"
        }
      ],
      "name": "ConfigUpdate",
      "type": "event"
    },
    {
      "anonymous": false,
      "inputs": [
        {
          "indexed": true,
          "internalType": "address",
          "name": "token",
          "type": "address"
        },
        {
          "indexed": true,
          "internalType": "address",
          "name": "owner",
          "type": "address"
        },
        {
          "indexed": false,
          "internalType": "uint256",
          "name": "amount",
          "type": "uint256"
        },
        {
          "indexed": false,
          "internalType": "address[]",
          "name": "acceptedTokens",
          "type": "address[]"
        },
        {
          "indexed": false,
          "internalType": "bool",
          "name": "fiatEnabled",
          "type": "bool"
        },
        {
          "indexed": false,
          "internalType": "uint256",
          "name": "fiatPrice",
          "type": "uint256"
        }
      ],
      "name": "DepositUpdated",
      "type": "event"
    },
    {
      "anonymous": false,
      "inputs": [
        {
          "indexed": true,
          "internalType": "address",
          "name": "token",
          "type": "address"
        },
        {
          "indexed": true,
          "internalType": "address",
          "name": "recipient",
          "type": "address"
        },
        {
          "indexed": false,
          "internalType": "uint256",
          "name": "amount",
          "type": "uint256"
        },
        {
          "indexed": false,
          "internalType": "bool",
          "name": "isNFT",
          "type": "bool"
        }
      ],
      "name": "EmergencyRecovery",
      "type": "event"
    },
    {
      "anonymous": false,
      "inputs": [
        {
          "indexed": true,
          "internalType": "address",
          "name": "depositToken",
          "type": "address"
        },
        {
          "indexed": true,
          "internalType": "address",
          "name": "paymentToken",
          "type": "address"
        },
        {
          "indexed": false,
          "internalType": "uint256",
          "name": "amount",
          "type": "uint256"
        }
      ],
      "name": "FeesCollected",
      "type": "event"
    },
    {
      "anonymous": false,
      "inputs": [
        {
          "indexed": true,
          "internalType": "address",
          "name": "buyer",
          "type": "address"
        },
        {
          "indexed": true,
          "internalType": "address",
          "name": "depositToken",
          "type": "address"
        },
        {
          "indexed": false,
          "internalType": "uint256",
          "name": "amountReceived",
          "type": "uint256"
        }
      ],
      "name": "FiatPurchase",
      "type": "event"
    },
    {
      "anonymous": false,
      "inputs": [
        {
          "indexed": true,
          "internalType": "address",
          "name": "previousOwner",
          "type": "address"
        },
        {
          "indexed": true,
          "internalType": "address",
          "name": "newOwner",
          "type": "address"
        }
      ],
      "name": "OwnershipTransferred",
      "type": "event"
    },
    {
      "anonymous": false,
      "inputs": [
        {
          "indexed": false,
          "internalType": "address",
          "name": "account",
          "type": "address"
        }
      ],
      "name": "Paused",
      "type": "event"
    },
    {
      "anonymous": false,
      "inputs": [
        {
          "indexed": true,
          "internalType": "address",
          "name": "depositToken",
          "type": "address"
        },
        {
          "indexed": true,
          "internalType": "address",
          "name": "paymentToken",
          "type": "address"
        },
        {
          "indexed": true,
          "internalType": "address",
          "name": "owner",
          "type": "address"
        },
        {
          "indexed": false,
          "internalType": "uint256",
          "name": "amount",
          "type": "uint256"
        }
      ],
      "name": "ProceedsWithdrawn",
      "type": "event"
    },
    {
      "anonymous": false,
      "inputs": [
        {
          "indexed": true,
          "internalType": "address",
          "name": "purchaser",
          "type": "address"
        },
        {
          "indexed": true,
          "internalType": "address",
          "name": "depositToken",
          "type": "address"
        },
        {
          "indexed": false,
          "internalType": "address",
          "name": "purchaseToken",
          "type": "address"
        },
        {
          "indexed": false,
          "internalType": "uint256",
          "name": "amount",
          "type": "uint256"
        },
        {
          "indexed": false,
          "internalType": "uint256",
          "name": "price",
          "type": "uint256"
        },
        {
          "indexed": false,
          "internalType": "bool",
          "name": "isFiat",
          "type": "bool"
        }
      ],
      "name": "TokenTransaction",
      "type": "event"
    },
    {
      "anonymous": false,
      "inputs": [
        {
          "indexed": false,
          "internalType": "address",
          "name": "account",
          "type": "address"
        }
      ],
      "name": "Unpaused",
      "type": "event"
    },
    {
      "inputs": [],
      "name": "FIAT_TOKEN_ADDRESS",
      "outputs": [
        {
          "internalType": "address",
          "name": "",
          "type": "address"
        }
      ],
      "stateMutability": "view",
      "type": "function"
    },
    {
      "inputs": [],
      "name": "MAX_FEE_PERCENT",
      "outputs": [
        {
          "internalType": "uint256",
          "name": "",
          "type": "uint256"
        }
      ],
      "stateMutability": "view",
      "type": "function"
    },
    {
      "inputs": [
        {
          "internalType": "address",
          "name": "depositToken",
          "type": "address"
        },
        {
          "components": [
            {
              "internalType": "address",
              "name": "purchaseToken",
              "type": "address"
            },
            {
              "internalType": "address",
              "name": "recipient",
              "type": "address"
            },
            {
              "internalType": "uint256",
              "name": "amount",
              "type": "uint256"
            },
            {
              "internalType": "uint256",
              "name": "tokenId",
              "type": "uint256"
            }
          ],
          "internalType": "struct TokenSale.PurchaseParams",
          "name": "params",
          "type": "tuple"
        }
      ],
      "name": "buyToken",
      "outputs": [],
      "stateMutability": "nonpayable",
      "type": "function"
    },
    {
      "inputs": [
        {
          "internalType": "address",
          "name": "depositToken",
          "type": "address"
        },
        {
          "internalType": "address",
          "name": "paymentToken",
          "type": "address"
        }
      ],
      "name": "collectFees",
      "outputs": [],
      "stateMutability": "nonpayable",
      "type": "function"
    },
    {
      "inputs": [
        {
          "internalType": "address",
          "name": "",
          "type": "address"
        }
      ],
      "name": "depositTokenInfo",
      "outputs": [
        {
          "internalType": "address",
          "name": "depositTokenOwner",
          "type": "address"
        },
        {
          "internalType": "uint256",
          "name": "depositTokenBalance",
          "type": "uint256"
        },
        {
          "internalType": "bool",
          "name": "canBePurchasedInFiat",
          "type": "bool"
        },
        {
          "internalType": "uint256",
          "name": "priceInFiat",
          "type": "uint256"
        },
        {
          "internalType": "uint256",
          "name": "priceIncreaseAmount",
          "type": "uint256"
        },
        {
          "internalType": "uint256",
          "name": "priceIncreaseType",
          "type": "uint256"
        },
        {
          "internalType": "uint256",
          "name": "totalTokensPurchased",
          "type": "uint256"
        },
        {
          "internalType": "bool",
          "name": "isNFT",
          "type": "bool"
        },
        {
          "internalType": "uint256",
          "name": "lastUpdateTime",
          "type": "uint256"
        }
      ],
      "stateMutability": "view",
      "type": "function"
    },
    {
      "inputs": [
        {
          "internalType": "address",
          "name": "token",
          "type": "address"
        },
        {
          "internalType": "uint256",
          "name": "tokenId",
          "type": "uint256"
        },
        {
          "internalType": "uint256",
          "name": "amount",
          "type": "uint256"
        },
        {
          "internalType": "address",
          "name": "recipient",
          "type": "address"
        }
      ],
      "name": "emergencyRecover",
      "outputs": [],
      "stateMutability": "nonpayable",
      "type": "function"
    },
    {
      "inputs": [],
      "name": "feePercent",
      "outputs": [
        {
          "internalType": "uint256",
          "name": "",
          "type": "uint256"
        }
      ],
      "stateMutability": "view",
      "type": "function"
    },
    {
      "inputs": [
        {
          "internalType": "address",
          "name": "depositToken",
          "type": "address"
        },
        {
          "internalType": "address",
          "name": "purchaseToken",
          "type": "address"
        }
      ],
      "name": "getCurrentPrice",
      "outputs": [
        {
          "internalType": "uint256",
          "name": "",
          "type": "uint256"
        }
      ],
      "stateMutability": "view",
      "type": "function"
    },
    {
      "inputs": [
        {
          "internalType": "address",
          "name": "",
          "type": "address"
        }
      ],
      "name": "isDepositToken",
      "outputs": [
        {
          "internalType": "bool",
          "name": "",
          "type": "bool"
        }
      ],
      "stateMutability": "view",
      "type": "function"
    },
    {
      "inputs": [
        {
          "internalType": "address",
          "name": "token",
          "type": "address"
        },
        {
          "components": [
            {
              "internalType": "bool",
              "name": "isNFT",
              "type": "bool"
            },
            {
              "internalType": "uint256",
              "name": "amount",
              "type": "uint256"
            },
            {
              "internalType": "uint256",
              "name": "tokenId",
              "type": "uint256"
            },
            {
              "internalType": "address[]",
              "name": "acceptedTokens",
              "type": "address[]"
            },
            {
              "internalType": "uint256[]",
              "name": "prices",
              "type": "uint256[]"
            },
            {
              "internalType": "bool",
              "name": "enableFiat",
              "type": "bool"
            },
            {
              "internalType": "uint256",
              "name": "fiatPrice",
              "type": "uint256"
            },
            {
              "internalType": "uint256",
              "name": "priceIncreaseAmount",
              "type": "uint256"
            },
            {
              "internalType": "uint256",
              "name": "priceIncreaseType",
              "type": "uint256"
            }
          ],
          "internalType": "struct TokenSale.DepositParams",
          "name": "params",
          "type": "tuple"
        }
      ],
      "name": "manageDeposit",
      "outputs": [],
      "stateMutability": "nonpayable",
      "type": "function"
    },
    {
      "inputs": [],
      "name": "owner",
      "outputs": [
        {
          "internalType": "address",
          "name": "",
          "type": "address"
        }
      ],
      "stateMutability": "view",
      "type": "function"
    },
    {
      "inputs": [],
      "name": "paused",
      "outputs": [
        {
          "internalType": "bool",
          "name": "",
          "type": "bool"
        }
      ],
      "stateMutability": "view",
      "type": "function"
    },
    {
      "inputs": [],
      "name": "paymentOracle",
      "outputs": [
        {
          "internalType": "address",
          "name": "",
          "type": "address"
        }
      ],
      "stateMutability": "view",
      "type": "function"
    },
    {
      "inputs": [],
      "name": "renounceOwnership",
      "outputs": [],
      "stateMutability": "nonpayable",
      "type": "function"
    },
    {
      "inputs": [
        {
          "internalType": "address",
          "name": "",
          "type": "address"
        },
        {
          "internalType": "address",
          "name": "",
          "type": "address"
        }
      ],
      "name": "salesProceeds",
      "outputs": [
        {
          "internalType": "uint256",
          "name": "",
          "type": "uint256"
        }
      ],
      "stateMutability": "view",
      "type": "function"
    },
    {
      "inputs": [
        {
          "internalType": "uint256",
          "name": "_feePercent",
          "type": "uint256"
        }
      ],
      "name": "setFeePercent",
      "outputs": [],
      "stateMutability": "nonpayable",
      "type": "function"
    },
    {
      "inputs": [
        {
          "internalType": "address",
          "name": "_oracle",
          "type": "address"
        }
      ],
      "name": "setPaymentOracle",
      "outputs": [],
      "stateMutability": "nonpayable",
      "type": "function"
    },
    {
      "inputs": [
        {
          "internalType": "address",
          "name": "",
          "type": "address"
        },
        {
          "internalType": "address",
          "name": "",
          "type": "address"
        }
      ],
      "name": "tokenFees",
      "outputs": [
        {
          "internalType": "uint256",
          "name": "",
          "type": "uint256"
        }
      ],
      "stateMutability": "view",
      "type": "function"
    },
    {
      "inputs": [
        {
          "internalType": "uint256",
          "name": "",
          "type": "uint256"
        }
      ],
      "name": "trackedTokens",
      "outputs": [
        {
          "internalType": "address",
          "name": "",
          "type": "address"
        }
      ],
      "stateMutability": "view",
      "type": "function"
    },
    {
      "inputs": [
        {
          "internalType": "address",
          "name": "newOwner",
          "type": "address"
        }
      ],
      "name": "transferOwnership",
      "outputs": [],
      "stateMutability": "nonpayable",
      "type": "function"
    },
    {
      "inputs": [
        {
          "internalType": "address",
          "name": "depositToken",
          "type": "address"
        },
        {
          "internalType": "address",
          "name": "paymentToken",
          "type": "address"
        }
      ],
      "name": "withdrawProceeds",
      "outputs": [],
      "stateMutability": "nonpayable",
      "type": "function"
    }
  ],
  "transactionHash": "0x7e7a53f662aa24e454d5e6b8af8ef3fcc4807987d5a55c22abdf6ae99b873ffb",
  "args": [
    "0x1DEA6076bC003a957B1E4774A93a8D9aB0CBC1C1"
  ],
  "numDeployments": 3,
  "solcInputHash": "2208d2719ff8f2031efa39977418dcd4",
  "bytecode": "0x6080604052600380553480156200001557600080fd5b506040516200215c3803806200215c833981016040819052620000389162000122565b6200004333620000d2565b600180556002805460ff191690556001600160a01b038116620000ac5760405162461bcd60e51b815260206004820152601e60248201527f496e76616c6964207061796d656e74206f7261636c6520616464726573730000604482015260640160405180910390fd5b600780546001600160a01b0319166001600160a01b039290921691909117905562000154565b600080546001600160a01b038381166001600160a01b0319831681178455604051919092169283917f8be0079c531659141344cd1fd0a4f28419497f9722a3daafe3b4186f6b6457e09190a35050565b6000602082840312156200013557600080fd5b81516001600160a01b03811681146200014d57600080fd5b9392505050565b611ff880620001646000396000f3fe608060405234801561001057600080fd5b50600436106101175760003560e01c80637fd6f15c116100a85780637fd6f15c146102a35780638305368a146102ac5780638da5cb5b146102bf578063b89e45b3146102c7578063db16a555146102ea578063db24f31a146102fd578063dfb5f50114610310578063e022928614610323578063e319d8ab14610336578063f2fde38b14610349578063ff8385d31461035c57600080fd5b80630d59e3531461011c57806334d9f76a146101e05780633c9b4522146101f55780635c975abb1461020a57806361e6a8941461022157806367d81740146102345780636e138b651461024a578063715018a6146102755780637ce3489b1461027d5780637d14b86f14610290575b600080fd5b61018761012a366004611b9c565b6008602081905260009182526040909120805460048201546007830154938301546009840154600a850154600b860154600c870154600d909701546001600160a01b0390961697949660ff95861696949593949293919291169089565b604080516001600160a01b03909a168a5260208a0198909852951515968801969096526060870193909352608086019190915260a085015260c084015290151560e0830152610100820152610120015b60405180910390f35b6101e8600181565b6040516101d79190611bbe565b610208610203366004611bd2565b610387565b005b60025460ff165b60405190151581526020016101d7565b61020861022f366004611b9c565b610492565b61023c601481565b6040519081526020016101d7565b61023c610258366004611bd2565b600560209081526000928352604080842090915290825290205481565b610208610555565b61020861028b366004611c05565b610569565b61020861029e366004611bd2565b6105fa565b61023c60035481565b6101e86102ba366004611c05565b61075f565b6101e8610789565b6102116102d5366004611b9c565b60096020526000908152604090205460ff1681565b61023c6102f8366004611bd2565b610798565b61020861030b366004611c1e565b6107ec565b61020861031e366004611c64565b610a4e565b6007546101e8906001600160a01b031681565b610208610344366004611d08565b6111b4565b610208610357366004611b9c565b6115a6565b61023c61036a366004611bd2565b600460209081526000928352604080842090915290825290205481565b61038f61161f565b6001600160a01b03808316600090815260046020908152604080832093851683529290522054806103fc5760405162461bcd60e51b8152602060048201526012602482015271139bc81999595cc81d1bc818dbdb1b1958dd60721b60448201526064015b60405180910390fd5b6001600160a01b03808416600090815260046020908152604080832093861683529290529081205561044061042f610789565b6001600160a01b038416908361167e565b816001600160a01b0316836001600160a01b03167f9bcb6d1f38f6800906185471a11ede9a8e16200853225aa62558db6076490f2d8360405161048591815260200190565b60405180910390a3505050565b61049a61161f565b6001600160a01b0381166104e15760405162461bcd60e51b815260206004820152600e60248201526d496e76616c6964206f7261636c6560901b60448201526064016103f3565b600780546001600160a01b0319166001600160a01b038316179055604051656f7261636c6560d01b81526006016040519081900381206001600160a01b0383168252907fad219fed7e76fbd06f005484092a7e2a85d653e9e6be64f32f01c2bb5b21d0e0906020015b60405180910390a250565b61055d61161f565b61056760006116e6565b565b61057161161f565b60148111156105b15760405162461bcd60e51b815260206004820152600c60248201526b08ccaca40e8dede40d0d2ced60a31b60448201526064016103f3565b60038181556040516266656560e81b815201604051908190038120828252907fad219fed7e76fbd06f005484092a7e2a85d653e9e6be64f32f01c2bb5b21d0e09060200161054a565b6001600160a01b038281166000908152600860205260409020805490911633146106615760405162461bcd60e51b815260206004820152601860248201527727b7363c903232b837b9b4ba103a37b5b2b71037bbb732b960411b60448201526064016103f3565b6001600160a01b03808416600090815260056020908152604080832093861683529290522054806106ce5760405162461bcd60e51b81526020600482015260176024820152764e6f2070726f636565647320746f20776974686472617760481b60448201526064016103f3565b6001600160a01b0380851660009081526005602090815260408083209387168084529390915281205561070290338361167e565b336001600160a01b0316836001600160a01b0316856001600160a01b03167fdc5a93c359dd64beafa4605cad14c50f1273b7db78bc5991dd693f909443b6408460405161075191815260200190565b60405180910390a450505050565b6006818154811061076f57600080fd5b6000918252602090912001546001600160a01b0316905081565b6000546001600160a01b031690565b6001600160a01b038083166000908152600860205260408120909183166001146107dc576001600160a01b03831660009081526002820160205260409020546107e2565b80600801545b9150505b92915050565b6107f461161f565b6001600160a01b03811661083e5760405162461bcd60e51b8152602060048201526011602482015270125b9d985b1a59081c9958da5c1a595b9d607a1b60448201526064016103f3565b6040516301ffc9a760e01b81526380ac58cd60e01b60048201526001600160a01b038516906301ffc9a790602401602060405180830381865afa158015610889573d6000803e3d6000fd5b505050506040513d601f19601f820116820180604052508101906108ad9190611d6c565b15610961576040516323b872dd60e01b81526001600160a01b038516906323b872dd906108e290309085908890600401611d89565b600060405180830381600087803b1580156108fc57600080fd5b505af1158015610910573d6000803e3d6000fd5b505060408051868152600160208201526001600160a01b038086169450881692507f410d85bd536f0572efdeba0970fdf1c45672e113f9c4012059dcb2bb972809a2910160405180910390a3610a48565b6040516370a0823160e01b81526000906001600160a01b038616906370a0823190610990903090600401611bbe565b602060405180830381865afa1580156109ad573d6000803e3d6000fd5b505050506040513d601f19601f820116820180604052508101906109d19190611dad565b9050600060001984146109e457836109e6565b815b90506109fc6001600160a01b038716848361167e565b60408051828152600060208201526001600160a01b0380861692908916917f410d85bd536f0572efdeba0970fdf1c45672e113f9c4012059dcb2bb972809a2910160405180910390a350505b50505050565b610a56611736565b610a5e61178f565b60208101516001600160a01b031615610a7b578060200151610a7d565b335b6001600160a01b039081166020808401919091529083166000908152600882526040808220600990935290205460ff16610aee5760405162461bcd60e51b8152602060048201526012602482015271546f6b656e206e6f7420666f722073616c6560701b60448201526064016103f3565b81516001600160a01b031660001901610b9e576007546001600160a01b03163314610b515760405162461bcd60e51b81526020600482015260136024820152724f6e6c79207061796d656e74206f7261636c6560681b60448201526064016103f3565b600781015460ff16610b995760405162461bcd60e51b8152602060048201526011602482015270119a585d081b9bdd081858d8d95c1d1959607a1b60448201526064016103f3565b610bfb565b81516001600160a01b03166000908152600282016020526040902054610bfb5760405162461bcd60e51b8152602060048201526012602482015271151bdad95b881b9bdd081858d8d95c1d195960721b60448201526064016103f3565b600c81015460ff1615610cbf578160400151600114610c5c5760405162461bcd60e51b815260206004820152601d60248201527f4e465420707572636861736520616d6f756e74206d757374206265203100000060448201526064016103f3565b6060820151600090815260058201602052604090206001015460ff16610cba5760405162461bcd60e51b8152602060048201526013602482015272546f6b656e206e6f7420617661696c61626c6560681b60448201526064016103f3565b610d0e565b816040015181600401541015610d0e5760405162461bcd60e51b8152602060048201526014602482015273496e73756666696369656e742062616c616e636560601b60448201526064016103f3565b81516000906001600160a01b0316600114610d445782516001600160a01b03166000908152600283016020526040902054610d4a565b81600801545b90506000836040015182610d5e9190611ddc565b90506000606460035483610d729190611ddc565b610d7c9190611df3565b90506000610d8a8284611e15565b86519091506001600160a01b0316600114610e38578551610db6906001600160a01b03163330866117d5565b6001600160a01b0380881660009081526004602090815260408083208a5190941683529290529081208054849290610def908490611e28565b90915550506001600160a01b0380881660009081526005602090815260408083208a5190941683529290529081208054839290610e2d908490611e28565b90915550610e8a9050565b866001600160a01b031686602001516001600160a01b03167f531f0560bf52ca7afd8a6b5828f47094bad32b7748b6ba635aed24e3d146d34f85604051610e8191815260200190565b60405180910390a35b600c85015460ff1615610fec57602086015160608701516040516323b872dd60e01b81526001600160a01b038a16926323b872dd92610ecf9230929190600401611d89565b600060405180830381600087803b158015610ee957600080fd5b505af1158015610efd573d6000803e3d6000fd5b50505050606086015160009081526005860160205260408120600101805460ff191690555b6006860154811015610fe6578660600151866006018281548110610f4857610f48611e3b565b906000526020600020015403610fd457600686018054610f6a90600190611e15565b81548110610f7a57610f7a611e3b565b9060005260206000200154866006018281548110610f9a57610f9a611e3b565b60009182526020909120015560068601805480610fb957610fb9611e51565b60019003818190600052602060002001600090559055610fe6565b80610fde81611e67565b915050610f22565b50611028565b6020860151604087015161100a916001600160a01b038a169161167e565b85604001518560040160008282546110229190611e15565b90915550505b6009850154156111245785516000906001600160a01b03166001146110685786516001600160a01b0316600090815260028701602052604090205461106e565b85600801545b9050600086600a01546000146110b857606487600b01548860090154846110959190611ddc565b61109f9190611ddc565b6110a99190611df3565b6110b39083611e28565b6110d6565b86600b015487600901546110cc9190611ddc565b6110d69083611e28565b905060016001600160a01b031688600001516001600160a01b0316036111025760088701819055611121565b87516001600160a01b0316600090815260028801602052604090208190555b50505b856040015185600b01600082825461113c9190611e28565b9091555050855160408088015181516001600160a01b03938416808252602082019290925291820187905260011460608201529088169033907f0c050319f146a6f84d0ecd58dbfb68c90eb454164adcbeb84bfc32ff9738ba049060800160405180910390a350505050506111b060018055565b5050565b6111bc611736565b6111c461178f565b6001600160a01b038216600090815260086020908152604080832060099092529091205460ff16801580611201575081546001600160a01b031633145b61124d5760405162461bcd60e51b815260206004820152601d60248201527f556e617574686f72697a6564206f7220696e76616c696420746f6b656e00000060448201526064016103f3565b6020830135156113be576112646020840184611e80565b156113875760008360400135116112ab5760405162461bcd60e51b815260206004820152600b60248201526a125b9d985b1a590813919560aa1b60448201526064016103f3565b604080516323b872dd60e01b81526001600160a01b038616916323b872dd916112de913391309189013590600401611d89565b600060405180830381600087803b1580156112f857600080fd5b505af115801561130c573d6000803e3d6000fd5b50505050604080840135600090815260058401602052206001015460ff1661138257604080518082018252848201358082526001602080840182815260008481526005890183529586209451855551938201805460ff191694151594909417909355600686018054918201815584529190922001555b6113be565b6113a06001600160a01b038516333060208701356117d5565b82602001358260040160008282546113b89190611e28565b90915550505b81546001600160a01b031916331782556113db6020840184611e80565b600c8301805460ff19169115159190911790556113fb6060840184611e9d565b611409916001850191611b08565b5060005b61141a6060850185611e9d565b90508110156114ae576114306080850185611e9d565b8281811061144057611440611e3b565b9050602002013583600201600086806060019061145d9190611e9d565b8581811061146d5761146d611e3b565b90506020020160208101906114829190611b9c565b6001600160a01b03168152602081019190915260400160002055806114a681611e67565b91505061140d565b506114bf60c0840160a08501611e80565b60078301805460ff191691151591909117905560c0830135600883015560e08301356009830155610100830135600a8301556000600b83015542600d8301558061152f576001600160a01b0384166000908152600960205260409020805460ff1916600117905561152f846117f6565b336001600160a01b0385167fce88780a9261975b3ee895f9f5ae02389179139cbb2c9d901c1c707f0cd2ba15602086013561156d6060880188611e9d565b61157d60c08a0160a08b01611e80565b8960c00135604051611593959493929190611eee565b60405180910390a350506111b060018055565b6115ae61161f565b6001600160a01b0381166116135760405162461bcd60e51b815260206004820152602660248201527f4f776e61626c653a206e6577206f776e657220697320746865207a65726f206160448201526564647265737360d01b60648201526084016103f3565b61161c816116e6565b50565b33611628610789565b6001600160a01b0316146105675760405162461bcd60e51b815260206004820181905260248201527f4f776e61626c653a2063616c6c6572206973206e6f7420746865206f776e657260448201526064016103f3565b6040516001600160a01b0383166024820152604481018290526116e190849063a9059cbb60e01b906064015b60408051601f198184030181529190526020810180516001600160e01b03166001600160e01b0319909316929092179091526118a3565b505050565b600080546001600160a01b038381166001600160a01b0319831681178455604051919092169283917f8be0079c531659141344cd1fd0a4f28419497f9722a3daafe3b4186f6b6457e09190a35050565b6002600154036117885760405162461bcd60e51b815260206004820152601f60248201527f5265656e7472616e637947756172643a207265656e7472616e742063616c6c0060448201526064016103f3565b6002600155565b60025460ff16156105675760405162461bcd60e51b815260206004820152601060248201526f14185d5cd8589b194e881c185d5cd95960821b60448201526064016103f3565b610a48846323b872dd60e01b8585856040516024016116aa93929190611d89565b60005b60065481101561185057816001600160a01b03166006828154811061182057611820611e3b565b6000918252602090912001546001600160a01b03160361183e575050565b8061184881611e67565b9150506117f9565b50600680546001810182556000919091527ff652222313e28459528d920b65115c16c04f3efc82aaedc97be59f3f377c0d3f0180546001600160a01b0319166001600160a01b0392909216919091179055565b60006118f8826040518060400160405280602081526020017f5361666545524332303a206c6f772d6c6576656c2063616c6c206661696c6564815250856001600160a01b03166119789092919063ffffffff16565b90508051600014806119195750808060200190518101906119199190611d6c565b6116e15760405162461bcd60e51b815260206004820152602a60248201527f5361666545524332303a204552433230206f7065726174696f6e20646964206e6044820152691bdd081cdd58d8d9595960b21b60648201526084016103f3565b6060611987848460008561198f565b949350505050565b6060824710156119f05760405162461bcd60e51b815260206004820152602660248201527f416464726573733a20696e73756666696369656e742062616c616e636520666f6044820152651c8818d85b1b60d21b60648201526084016103f3565b600080866001600160a01b03168587604051611a0c9190611f73565b60006040518083038185875af1925050503d8060008114611a49576040519150601f19603f3d011682016040523d82523d6000602084013e611a4e565b606091505b5091509150611a5f87838387611a6a565b979650505050505050565b60608315611ad9578251600003611ad2576001600160a01b0385163b611ad25760405162461bcd60e51b815260206004820152601d60248201527f416464726573733a2063616c6c20746f206e6f6e2d636f6e747261637400000060448201526064016103f3565b5081611987565b6119878383815115611aee5781518083602001fd5b8060405162461bcd60e51b81526004016103f39190611f8f565b828054828255906000526020600020908101928215611b5b579160200282015b82811115611b5b5781546001600160a01b0319166001600160a01b03843516178255602090920191600190910190611b28565b50611b67929150611b6b565b5090565b5b80821115611b675760008155600101611b6c565b80356001600160a01b0381168114611b9757600080fd5b919050565b600060208284031215611bae57600080fd5b611bb782611b80565b9392505050565b6001600160a01b0391909116815260200190565b60008060408385031215611be557600080fd5b611bee83611b80565b9150611bfc60208401611b80565b90509250929050565b600060208284031215611c1757600080fd5b5035919050565b60008060008060808587031215611c3457600080fd5b611c3d85611b80565b93506020850135925060408501359150611c5960608601611b80565b905092959194509250565b60008082840360a0811215611c7857600080fd5b611c8184611b80565b92506080601f1982011215611c9557600080fd5b506040516080810181811067ffffffffffffffff82111715611cc757634e487b7160e01b600052604160045260246000fd5b604052611cd660208501611b80565b8152611ce460408501611b80565b60208201526060840135604082015260808401356060820152809150509250929050565b60008060408385031215611d1b57600080fd5b611d2483611b80565b9150602083013567ffffffffffffffff811115611d4057600080fd5b83016101208186031215611d5357600080fd5b809150509250929050565b801515811461161c57600080fd5b600060208284031215611d7e57600080fd5b8151611bb781611d5e565b6001600160a01b039384168152919092166020820152604081019190915260600190565b600060208284031215611dbf57600080fd5b5051919050565b634e487b7160e01b600052601160045260246000fd5b80820281158282048414176107e6576107e6611dc6565b600082611e1057634e487b7160e01b600052601260045260246000fd5b500490565b818103818111156107e6576107e6611dc6565b808201808211156107e6576107e6611dc6565b634e487b7160e01b600052603260045260246000fd5b634e487b7160e01b600052603160045260246000fd5b600060018201611e7957611e79611dc6565b5060010190565b600060208284031215611e9257600080fd5b8135611bb781611d5e565b6000808335601e19843603018112611eb457600080fd5b83018035915067ffffffffffffffff821115611ecf57600080fd5b6020019150600581901b3603821315611ee757600080fd5b9250929050565b85815260806020808301829052908201859052600090869060a08401835b88811015611f38576001600160a01b03611f2585611b80565b1682529282019290820190600101611f0c565b509515156040850152505050606001529392505050565b60005b83811015611f6a578181015183820152602001611f52565b50506000910152565b60008251611f85818460208701611f4f565b9190910192915050565b6020815260008251806020840152611fae816040850160208701611f4f565b601f01601f1916919091016040019291505056fea26469706673582212200391af4a997061fcd6b5ffa63bedc84b53c984c3b13e8dc4be56c1e19ca7597864736f6c63430008130033",
  "devdoc": {
    "events": {
      "Paused(address)": {
        "details": "Emitted when the pause is triggered by `account`."
      },
      "Unpaused(address)": {
        "details": "Emitted when the pause is lifted by `account`."
      }
    },
    "kind": "dev",
    "methods": {
      "owner()": {
        "details": "Returns the address of the current owner."
      },
      "paused()": {
        "details": "Returns true if the contract is paused, and false otherwise."
      },
      "renounceOwnership()": {
        "details": "Leaves the contract without owner. It will not be possible to call `onlyOwner` functions. Can only be called by the current owner. NOTE: Renouncing ownership will leave the contract without an owner, thereby disabling any functionality that is only available to the owner."
      },
      "transferOwnership(address)": {
        "details": "Transfers ownership of the contract to a new account (`newOwner`). Can only be called by the current owner."
      }
    },
    "version": 1
  },
  "userdoc": {
    "kind": "user",
    "methods": {},
    "version": 1
  },
  "storageLayout": {
    "storage": [
      {
        "astId": 7,
        "contract": "contracts/TokenSale.sol:TokenSale",
        "label": "_owner",
        "offset": 0,
        "slot": "0",
        "type": "t_address"
      },
      {
        "astId": 231,
        "contract": "contracts/TokenSale.sol:TokenSale",
        "label": "_status",
        "offset": 0,
        "slot": "1",
        "type": "t_uint256"
      },
      {
        "astId": 130,
        "contract": "contracts/TokenSale.sol:TokenSale",
        "label": "_paused",
        "offset": 0,
        "slot": "2",
        "type": "t_bool"
      },
      {
        "astId": 1279,
        "contract": "contracts/TokenSale.sol:TokenSale",
        "label": "feePercent",
        "offset": 0,
        "slot": "3",
        "type": "t_uint256"
      },
      {
        "astId": 1285,
        "contract": "contracts/TokenSale.sol:TokenSale",
        "label": "tokenFees",
        "offset": 0,
        "slot": "4",
        "type": "t_mapping(t_address,t_mapping(t_address,t_uint256))"
      },
      {
        "astId": 1291,
        "contract": "contracts/TokenSale.sol:TokenSale",
        "label": "salesProceeds",
        "offset": 0,
        "slot": "5",
        "type": "t_mapping(t_address,t_mapping(t_address,t_uint256))"
      },
      {
        "astId": 1294,
        "contract": "contracts/TokenSale.sol:TokenSale",
        "label": "trackedTokens",
        "offset": 0,
        "slot": "6",
        "type": "t_array(t_address)dyn_storage"
      },
      {
        "astId": 1296,
        "contract": "contracts/TokenSale.sol:TokenSale",
        "label": "paymentOracle",
        "offset": 0,
        "slot": "7",
        "type": "t_address"
      },
      {
        "astId": 1350,
        "contract": "contracts/TokenSale.sol:TokenSale",
        "label": "depositTokenInfo",
        "offset": 0,
        "slot": "8",
        "type": "t_mapping(t_address,t_struct(TokenInfo)1345_storage)"
      },
      {
        "astId": 1354,
        "contract": "contracts/TokenSale.sol:TokenSale",
        "label": "isDepositToken",
        "offset": 0,
        "slot": "9",
        "type": "t_mapping(t_address,t_bool)"
      }
    ],
    "types": {
      "t_address": {
        "encoding": "inplace",
        "label": "address",
        "numberOfBytes": "20"
      },
      "t_array(t_address)dyn_storage": {
        "base": "t_address",
        "encoding": "dynamic_array",
        "label": "address[]",
        "numberOfBytes": "32"
      },
      "t_array(t_uint256)dyn_storage": {
        "base": "t_uint256",
        "encoding": "dynamic_array",
        "label": "uint256[]",
        "numberOfBytes": "32"
      },
      "t_bool": {
        "encoding": "inplace",
        "label": "bool",
        "numberOfBytes": "1"
      },
      "t_mapping(t_address,t_bool)": {
        "encoding": "mapping",
        "key": "t_address",
        "label": "mapping(address => bool)",
        "numberOfBytes": "32",
        "value": "t_bool"
      },
      "t_mapping(t_address,t_mapping(t_address,t_uint256))": {
        "encoding": "mapping",
        "key": "t_address",
        "label": "mapping(address => mapping(address => uint256))",
        "numberOfBytes": "32",
        "value": "t_mapping(t_address,t_uint256)"
      },
      "t_mapping(t_address,t_struct(TokenInfo)1345_storage)": {
        "encoding": "mapping",
        "key": "t_address",
        "label": "mapping(address => struct TokenSale.TokenInfo)",
        "numberOfBytes": "32",
        "value": "t_struct(TokenInfo)1345_storage"
      },
      "t_mapping(t_address,t_uint256)": {
        "encoding": "mapping",
        "key": "t_address",
        "label": "mapping(address => uint256)",
        "numberOfBytes": "32",
        "value": "t_uint256"
      },
      "t_mapping(t_uint256,t_struct(NFTTokenInfo)1307_storage)": {
        "encoding": "mapping",
        "key": "t_uint256",
        "label": "mapping(uint256 => struct TokenSale.NFTTokenInfo)",
        "numberOfBytes": "32",
        "value": "t_struct(NFTTokenInfo)1307_storage"
      },
      "t_struct(NFTTokenInfo)1307_storage": {
        "encoding": "inplace",
        "label": "struct TokenSale.NFTTokenInfo",
        "members": [
          {
            "astId": 1304,
            "contract": "contracts/TokenSale.sol:TokenSale",
            "label": "tokenId",
            "offset": 0,
            "slot": "0",
            "type": "t_uint256"
          },
          {
            "astId": 1306,
            "contract": "contracts/TokenSale.sol:TokenSale",
            "label": "isAvailable",
            "offset": 0,
            "slot": "1",
            "type": "t_bool"
          }
        ],
        "numberOfBytes": "64"
      },
      "t_struct(TokenInfo)1345_storage": {
        "encoding": "inplace",
        "label": "struct TokenSale.TokenInfo",
        "members": [
          {
            "astId": 1309,
            "contract": "contracts/TokenSale.sol:TokenSale",
            "label": "depositTokenOwner",
            "offset": 0,
            "slot": "0",
            "type": "t_address"
          },
          {
            "astId": 1312,
            "contract": "contracts/TokenSale.sol:TokenSale",
            "label": "acceptedTokens",
            "offset": 0,
            "slot": "1",
            "type": "t_array(t_address)dyn_storage"
          },
          {
            "astId": 1316,
            "contract": "contracts/TokenSale.sol:TokenSale",
            "label": "acceptedTokenPrices",
            "offset": 0,
            "slot": "2",
            "type": "t_mapping(t_address,t_uint256)"
          },
          {
            "astId": 1320,
            "contract": "contracts/TokenSale.sol:TokenSale",
            "label": "tokenBalance",
            "offset": 0,
            "slot": "3",
            "type": "t_mapping(t_address,t_uint256)"
          },
          {
            "astId": 1322,
            "contract": "contracts/TokenSale.sol:TokenSale",
            "label": "depositTokenBalance",
            "offset": 0,
            "slot": "4",
            "type": "t_uint256"
          },
          {
            "astId": 1327,
            "contract": "contracts/TokenSale.sol:TokenSale",
            "label": "nftTokens",
            "offset": 0,
            "slot": "5",
            "type": "t_mapping(t_uint256,t_struct(NFTTokenInfo)1307_storage)"
          },
          {
            "astId": 1330,
            "contract": "contracts/TokenSale.sol:TokenSale",
            "label": "availableTokenIds",
            "offset": 0,
            "slot": "6",
            "type": "t_array(t_uint256)dyn_storage"
          },
          {
            "astId": 1332,
            "contract": "contracts/TokenSale.sol:TokenSale",
            "label": "canBePurchasedInFiat",
            "offset": 0,
            "slot": "7",
            "type": "t_bool"
          },
          {
            "astId": 1334,
            "contract": "contracts/TokenSale.sol:TokenSale",
            "label": "priceInFiat",
            "offset": 0,
            "slot": "8",
            "type": "t_uint256"
          },
          {
            "astId": 1336,
            "contract": "contracts/TokenSale.sol:TokenSale",
            "label": "priceIncreaseAmount",
            "offset": 0,
            "slot": "9",
            "type": "t_uint256"
          },
          {
            "astId": 1338,
            "contract": "contracts/TokenSale.sol:TokenSale",
            "label": "priceIncreaseType",
            "offset": 0,
            "slot": "10",
            "type": "t_uint256"
          },
          {
            "astId": 1340,
            "contract": "contracts/TokenSale.sol:TokenSale",
            "label": "totalTokensPurchased",
            "offset": 0,
            "slot": "11",
            "type": "t_uint256"
          },
          {
            "astId": 1342,
            "contract": "contracts/TokenSale.sol:TokenSale",
            "label": "isNFT",
            "offset": 0,
            "slot": "12",
            "type": "t_bool"
          },
          {
            "astId": 1344,
            "contract": "contracts/TokenSale.sol:TokenSale",
            "label": "lastUpdateTime",
            "offset": 0,
            "slot": "13",
            "type": "t_uint256"
          }
        ],
        "numberOfBytes": "448"
      },
      "t_uint256": {
        "encoding": "inplace",
        "label": "uint256",
        "numberOfBytes": "32"
      }
    }
  }
}